:020000040000fa
:080000000001040000000000f3
:020000040000fa
:04000800b80100003b
:020000040000fa
:04000c00b801000037
:020000040000fa
:04001000b801000033
:020000040000fa
:04001400b80100002f
:020000040000fa
:04001800b80100002b
:020000040000fa
:04001c00b801000027
:020000040000fa
:04002000b801000023
:020000040000fa
:04002400b80100001f
:020000040000fa
:04002800b80100001b
:020000040000fa
:04002c00b801000017
:020000040000fa
:04003000b801000013
:020000040000fa
:04003400902c00000c
:020000040000fa
:04003800b80100000b
:020000040000fa
:04003c00b801000007
:020000040000fa
:04004000b801000003
:020000040000fa
:04004400ac2c0000e0
:020000040000fa
:04004800b8010000fb
:020000040000fa
:04004c00bc2c0000c8
:020000040000fa
:04005000b8010000f3
:020000040000fa
:04005400b8010000ef
:020000040000fa
:04005800b8010000eb
:020000040000fa
:04005c00b8010000e7
:020000040000fa
:04006000b8010000e3
:020000040000fa
:04006400b8010000df
:020000040000fa
:04006800b8010000db
:020000040000fa
:04006c00b8010000d7
:020000040000fa
:04007000b8010000d3
:020000040000fa
:04007400b8010000cf
:020000040000fa
:04007800b8010000cb
:020000040000fa
:04007c00b8010000c7
:020000040000fa
:04008000b8010000c3
:020000040000fa
:04008400b8010000bf
:020000040000fa
:04008800522c0000f6
:020000040000fa
:04008c00b8010000b7
:020000040000fa
:04009000b8010000b3
:020000040000fa
:04009400b8010000af
:020000040000fa
:04009800b8010000ab
:020000040000fa
:04009c00b8010000a7
:020000040000fa
:0400a000b8010000a3
:020000040000fa
:0400a400b80100009f
:020000040000fa
:0400a800b80100009b
:020000040000fa
:0400ac00b801000097
:020000040000fa
:0400b000b801000093
:020000040000fa
:0400b400b80100008f
:020000040000fa
:0400b800b80100008b
:020000040000fa
:0400bc00b801000087
:020000040000fa
:0400c000b801000083
:020000040000fa
:0400c400b80100007f
:020000040000fa
:0400c800b80100007b
:020000040000fa
:0400cc00b801000077
:020000040000fa
:0400d000b801000073
:020000040000fa
:0400d400b80100006f
:020000040000fa
:0400d800b80100006b
:020000040000fa
:04010800b80100003a
:020000040000fa
:04010c00b801000036
:020000040000fa
:04011000b801000032
:020000040000fa
:04011400b80100002e
:020000040000fa
:04011800b80100002a
:020000040000fa
:04011c00b801000026
:020000040000fa
:04012000b801000022
:020000040000fa
:04012400b80100001e
:020000040000fa
:04012800b80100001a
:020000040000fa
:04012c00b801000016
:020000040000fa
:04013000b801000012
:020000040000fa
:04013400b80100000e
:020000040000fa
:04013800b80100000a
:020000040000fa
:04013c00b801000006
:020000040000fa
:04014000b801000002
:020000040000fa
:04014400b8010000fe
:020000040000fa
:04014800b8010000fa
:020000040000fa
:04014c00b8010000f6
:020000040000fa
:04015000b8010000f2
:020000040000fa
:04015400b8010000ee
:020000040000fa
:04015800b8010000ea
:020000040000fa
:04015c00b8010000e6
:020000040000fa
:04016000b8010000e2
:020000040000fa
:04016400b8010000de
:020000040000fa
:04016800b8010000da
:020000040000fa
:04016c00b8010000d6
:020000040000fa
:04017000b8010000d2
:020000040000fa
:04017400b8010000ce
:020000040000fa
:04017800b8010000ca
:020000040000fa
:04017c00b8010000c6
:020000040000fa
:04018000b8010000c2
:020000040000fa
:04018400b8010000be
:020000040000fa
:04018800b8010000ba
:020000040000fa
:04018c00b8010000b6
:020000040000fa
:04019000b8010000b2
:020000040000fa
:04019400b8010000ae
:020000040000fa
:04019800b8010000aa
:020000040000fa
:04019c00b8010000a6
:020000040000fa
:0401a000b8010000a2
:020000040000fa
:0401a400b80100009e
:020000040000fa
:0401a800b80100009a
:020000040000fa
:0401ac00b801000096
:020000040000fa
:0401b000b801000092
:020000040000fa
:0401b400b80100008e
:020000040000fa
:0401b800b80100008a
:020000040000fa
:0401bc00b801000086
:020000040000fa
:0401c000b801000082
:020000040000fa
:0401c400b80100007e
:020000040000fa
:0401c800b80100007a
:020000040000fa
:0401cc00b801000076
:020000040000fa
:0401d000b801000072
:020000040000fa
:0401d400b80100006e
:020000040000fa
:0401d800b80100006a
:020000040000fa
:100200002fac20000eff20000e018800000000002f
:10021000000020000000e000020032000001200089
:10022000200288000c000700a0ce22000100200060
:1002300011000700000020000000e0000200320072
:1002400000000200000000006e2a02000000000012
:100250000040da000000fe004440a90080142000a5
:100260000000e0000300320000002000a001880030
:100270004440a8000000060091018800800078003a
:100280000000eb0015003700e280400032a0b4000f
:100290009101ba00e280400032a0b4009102ba009d
:1002a000e280400032a0b4000002eb00472bde00e9
:1002b000f507b200602ce10004003a000059eb00a1
:1002c0008301e900fdff3e00040037006128e100e2
:1002d000010032000082eb000b00070011c3ba00de
:1002e0001101ba000604e00003003a000200e00039
:1002f000e5ff3a0000000600f607b200960188000c
:1003000082007800f5ff37003159ba008301e90017
:100310000c0032002159ba008301e90008003200c4
:100320000400e00003003a00e280400032a0b40084
:10033000f5ff370011d9ba008301e900faff3a004e
:100340008100e800e180400032a0b4000000060017
:10035000000000000000000000000000000000009d
:10036000000000000000000000000000000000008d
:100370000040da000000fe000a00fa001100200030
:10038000b1bf9f00c0bf9f006a805700ee0b0700ff
:100390004fb897000080fa00000006000a00fa003b
:1003a000e20f500020003e00c0558000e10f5000d9
:1003b00006003200e0212000a5212000832120003a
:1003c000642120000000e00004003a0040212000e9
:1003d00005212000e3202000c42020000600280082
:1003e0001403630003003a000608780000002800a8
:1003f000140a700013a8a30001003a0013a0a00083
:1004000002007800050037001388a300feff3200c9
:100410003102fb00840a78000000e9000000e000df
:10042000f9ff3a000800370033002000b3bf9f00f7
:10043000c0bf9f00d1bf9f00e2bf9f006a805700ee
:10044000c30b07006fb99700020078000080fa0024
:10045000000006000a00fa0051002000b1bf9f0012
:10046000c0bf9f006a805700bb0b07005fb89700b2
:100470000080fa0000000600889fbe00800478001b
:10048000005680000000e00004003a000e00070063
:100490000084eb000000e0000800350008568000f2
:1004a0000900e000050032000900440006000700d2
:1004b0000000e00001003d000084eb00080078002f
:1004c0004f04be0000000600800078000100e0003c
:1004d00003003a00000020000056880000000500dc
:1004e0000080eb0002002000828f500002003e00de
:1004f000015688000000eb0000000600f2108800a2
:10050000b0108800c11088000000060003f0a200af
:10051000889fbe008a9fbe008c1f780000010700e4
:10052000070133006450e1004f0032006420e10015
:100530005200320003826c0007003b000905d00026
:100540000306d000820f54000c065d000200390043
:100550000200320089017800030678008582550088
:1005600004003d000003fd008103fd008502ea0058
:100570008b854200840f720002003b006000100077
:10058000e08018006011b8000005eb007a28e10057
:100590000a00390006007800c75ddd00f707b200e9
:1005a000878075002d003700828171000a01780074
:1005b000610560008180d1000080d3008502e900e0
:1005c000f9ff3b00060440008784480002003b001e
:1005d00060041400e0841c000988a30007003200b6
:1005e0008a81710082817100610164008904d100f7
:1005f0000884d3008b05e800170037000978a300b2
:1006000013003a000b00e000130034008b05e900f2
:100610000804440089844c000a4474000978a3004b
:100620000d003a000b00e000070034008b05e900e4
:100630000804440089844c0001003a000b002000ab
:100640000978a300f7ff32000001eb000200370039
:10065000828171000a017800760007000cf0a70083
:1006600001f0a000bf0037006420e10002003a0062
:10067000838f6c00bf0033000801be000200be0083
:10068000b8003700889fbe008a9fbe008c1f78008c
:10069000a3000700aa00330003866c006450e10049
:1006a0002e0032006420e100330032006150e1008e
:1006b0002f0032006120e1003100320085855500b5
:1006c000eb07b000090020000804200005003700f7
:1006d0000804440089844c000a00310006034300ea
:1006e00087834b000001530081815b00f8ff3300da
:1006f0000203be000800a0000804440089844c00e6
:10070000f6ff3900c639dd008301730001003200b5
:10071000130020008904d1000884d3000998a300a5
:10072000050032000800a7000300a0008904d100e2
:100730000884d3008b05e8008904d1000884d30025
:100740000001eb000281d2003a00070001f0a10095
:100750000cf0a70001f0a000820037006420e10047
:10076000840032000801be000200be00f7ff37001f
:100770006120e1007f0032006000b800f3ff370025
:100780000000200001f82700f0ff370014002000cf
:1007900013013700f4ff2f00110137000001be00e4
:1007a0004a0007000470a70003f0a1006509b1002a
:1007b000160032000d0035006828e1000600350003
:1007c000f0ff2f00f1ff27000300e00013003b00c3
:1007d0000100280000000500000040008180480062
:1007e0008502e900fcff3a0008003700f88f42005c
:1007f00002003c008000eb00000005008100d100f9
:100800000080d3008502e800fcff3a000300e0000e
:1008100002003b0060001000e080180000000600ad
:100820004f89de0082017800080137006011b800ae
:100830001601370081002000618055000b003d004b
:100840000b00200061fe2f000100e1001d003400bc
:1008500082817100610164008904d1000884d300a1
:100860000000e800faff3a00710020006100640017
:1008700003007000020060000900320061044400bf
:10088000e0844c000988a500050032008b05e800d3
:100890006808e10002003a008904d1000884d3000e
:1008a000f20f20000258e10005003d00c75ddd00a9
:1008b000f907b20089807500080078000000060082
:1008c0000bf827008b00780000000500c70ade0047
:1008d000f107b200f50fb20008003200e1cf42008c
:1008e000020032000170a00024000500810f70009a
:1008f000010032000408050044000500810f70006b
:1009000002003a00140005008502e90000004000e2
:1009100081c04800fcff3b000170a00024000500de
:100920000004be00e9ff07000003be000405be008e
:100930000200be00e5ff0700844f750000000600be
:100940000200be006450e100050036006420e100b2
:10095000020036000968a30001003a000800be004a
:100960000160a0004f0678004f05be004f04be0096
:1009700000000600f0ff2f00f1ff2700f9ff37000d
:10098000889fbe008a9fbe008c9fbe008700070024
:10099000850478000005be006420e10049003e00a7
:1009a0006220e10003003200090035000bf8a300cb
:1009b000440032000bf8a3000800320010022000af
:1009c000b04c8800f0ff2f00f1ff27003d003700fa
:1009d00001f82f00000020003a0037003d0007001a
:1009e000cafe07000006be000a00be00324f20000b
:1009f00053f3230067ff0700060034000c00be001d
:100a000034000700c1fe07000006be000a00be0059
:100a1000020037008904e9000c00be002d00070029
:100a20002e0007002b000700b9fe07000001be00e2
:100a30000c00be0013ff07000005be000001be0051
:100a4000260007000006be00a2f32300430d2c0081
:100a5000affe0700809fbe000c00be00d2e327005f
:100a6000d3f02b001d0007004f01be0005ff07005b
:100a70000006be000a01be00180007000a01be0001
:100a8000a3fe07000006be006148b90064ff07002e
:100a90000005be0032082800e3952b000f00070078
:100aa0000c01be009afe07000006be000a00be0050
:100ab0000200280013f32300080007000c01be0009
:100ac00093fe07004f06be004f05be004f04be0058
:100ad0000000060003f0230002000500889fbe000e
:100ae0008a9fbe008c1f78008dff070094ff3300a3
:100af00003866c006450e100240032006420e100b1
:100b0000270032006150e100220032006120e10044
:100b1000210032008b854200eb07b1000134b800a0
:100b2000003ab8000804420089844a00013ab8003b
:100b30000030b8008880400009014a0004003300fa
:100b40000000400081804800020149008b05e90057
:100b5000c909dd008301700001003200130020008c
:100b6000c814de004814dd004709de001200b200a0
:100b7000c808de00088470002eff070001f0a10005
:100b80000cf0a70001f0a00076ff37006120e10023
:100b900078ff32000801be000200be00f7ff3700f8
:100ba0006150e100fcff3a0072ff37000003be0015
:100bb00046ff07006220e100020032000600be008e
:100bc00005000500e507b100f107b20004f02300bd
:100bd0008480700007f0a70001f0a0002400050049
:100be000889fbe008a9fbe00841f78004cff0700cc
:100bf0004f00780011003300f0ff2f00838f6c004e
:100c000006003b00040565000a00a7000800370045
:100c100009f0a6001000200008003700820f5400e1
:100c2000838f5c00030039001000200001003e00ab
:100c30000000200009f0a7000000ea004f05be00f8
:100c40004f04be000000e00000000600881f78008e
:100c5000030478000300e00007003d00600010007e
:100c6000e080180060011900e081190002003b00db
:100c700001f02d00030037000400070008f0a70072
:100c800001f0a0004f04780000000600889fbe001d
:100c90008a9fbe000082700004027100048271000d
:100ca000260032000004be000200be006011b80041
:100cb0006b092000950220000182cf000a00390054
:100cc0000541b1000082cf00070039000541b100a5
:100cd0000982cf00040039000541b1000882cf002d
:100ce000010039000541b1000542520012003200f6
:100cf0000a003b0082817100610164008100d10023
:100d00000080d3008984d3000884d3008b05e800d9
:100d10000442e800f7ff3a000700370008044400e7
:100d200089844c0000004800818048008b05e90060
:100d30000442e900f9ff3a00befe07004f05be007d
:100d40004f04be000000060080017800020037005a
:100d5000b15978000201e9000200e000fcff3a000e
:100d600000000600019c2000f404070080007800c9
:100d70000080eb000100e00004003500019c200031
:100d8000a0002000120007004f80de0000000600d7
:100d900000017800820178003204e000fdff3a0093
:100da00003017800b1417800035978000304e000a2
:100db000fcff3a0000000600800078000101780086
:100dc0003104e000fdff3a00000051000000060081
:100dd000889fbe008a1f78000004be00c9009000f2
:100de00069009000808f50000500390009007800ec
:100df000a30507008080eb000000e000160035002e
:100e0000084578004900900008587800c004980010
:100e10001900780000b8a30004003a0000a8a3005d
:100e200007003200ea4f540005003a00090078003c
:100e3000870407008080eb000000e00006003a0015
:100e400000c020001900600002003200490090003c
:100e5000e00498008a80fb00010078004f057800cc
:100e60004f04be0000000600881f780002047800ce
:100e700008017800b4ff0700080040004f04780024
:100e8000000006000000fa00881f780000047800c7
:100e9000ea8157003fb9970088007800407320002e
:100ea0001d0007000000e000020035008040eb005c
:100eb000017478004f0478000080fa0000000600fa
:100ec000889fbe000004780001007800820478004a
:100ed000880178000901780011002000df04070074
:100ee000890f5000010032000004eb000800780078
:100ef0004f04be00000006000000fa00e881570021
:100f00004fb99700019c20000076200002000700e6
:100f10000080fa00000006006200fa00889fbe0010
:100f20008a1f7800000578008104780002047800a8
:100f30008300780080f92f000f004000ac07070005
:100f40009a979f00a9979f000000eb00b09f9f0019
:100f50001885fb008a04fb000a05ea004f55de00f5
:100f600050022000808f54000d003200e10f550028
:100f70000b003a000a017800880078002f90970053
:100f80009f91970003000100a0979f000000e000e0
:100f90008e0032003f9897000000e800b09f9f004d
:100fa0000a04440050022000808f540004003200e4
:100fb0000900e000e6ff3a003f9897008400370000
:100fc0000000eb00909f9f00809f9f00f0979f0084
:100fd000e0979f00d0979f00c0979f0007003700c1
:100fe000e1aa2000010050000000400021aa2000da
:100ff00061007800df98970001007000d09f9f008b
:101000008804780009047800384578008a00fb00dd
:10101000e0aa2000040507000000e000f0ff3a000d
:10102000a1c2b300814f55000e003a00cf8897004f
:101030000180e900c08f9f0010007800c09f9f00d2
:101040000000e00005003d000000ea00c09f9f0096
:101050005f9897000020a000d09f9f000904e8003f
:101060000f003700c09f9f000000eb000500370015
:10107000f2ff2700820f5000020032006a01b9001f
:10108000028040000904780088047800b900fb0061
:101090000103b100e98f5000f5ff3600c09f9f00ab
:1010a000e0c2b300984f1000020032000080eb0055
:1010b00019003700a0c2b300d84f100007003a0053
:1010c000cf8897000180e900c08f9f001000780052
:1010d000a09f9f000804e800100037000000eb000c
:1010e000a09f9f008800780005003700f3ff2700cd
:1010f000830f5000020032006a02b9000400410070
:1011000001047800880078003101fb000203b1007f
:10111000e90f5100f5ff3600a09f9f00984478002a
:101120008900fb00a0a92000bf0407000000e00028
:10113000020032000804e800010037008044eb00a0
:10114000c97f9f0080c6b30080cf540004003a00de
:1011500098cf14000a003a0066405000060037009d
:10116000c0c6b30080cf540005003a0098cf1400e9
:1011700003003a0065404000c07f9f000804e8007b
:101180001801fb00e3fb2f008f81410081f92f0044
:101190008f804000a0f92f000f00400010000700d2
:1011a0000000e00009003a00e1fb2f008f804000c2
:1011b000a0f92f000f004000510607000000e000da
:1011c000020035000804e80061ff37000080eb00f2
:1011d0004f0578004f04be000080fa0000000600b2
:1011e000889fbe008a1f780000047800824478003f
:1011f0000305780070c6b30080cf540021003c0086
:1012000000c0e90080cf5400cd003d007240500086
:1012100080cf5400340132000d003c006c4050007f
:1012200080cf540047013c0000c0e90080cf54004b
:10123000c3003d0050c2b30080cf54003e013200d5
:101240007c40400080cf54003e013a00bc00370093
:1012500010c6b30080cf5400b900320004003c0037
:101260006940500080cf540036013a0066003700d4
:1012700030c6b30080cf5400180032000040e800b0
:101280000900370000c7b30080cf540008013200c6
:1012900008003c0000c0e90080cf5400d1003200bb
:1012a00059003c006540500080cf540025013a00b1
:1012b0000f00370050c7b30080cf540052003200f7
:1012c0006340400080cf54004f0032006540500022
:1012d00080cf54001b013a00030137001181e9005f
:1012e0008208780078009000127578001b013700a2
:1012f00028609000c2c6b300824f500007003a0039
:101300001101780064005100800878001000be00d0
:101310004f89de00820178001100370012c7b30048
:10132000824f500003003200a2c6b300824f50002b
:1013300006003a001101780068005100800878002a
:101340005001be004000be00050037001180e900da
:101350008008780010007800cf80de006109b900b5
:10136000009cbe000294be002862900085c6b300b7
:10137000854f52000d00320025c6b300854f520044
:1013800004003a000000fb00cf80de006109b900d4
:101390000800370045c7b300854f520003003200f4
:1013a000e6c24200854f520004003a00cf80de00c2
:1013b0006109b900009cbe000294be003802be0064
:1013c0002803be0078009000d1c2b300e00f5200a5
:1013d000e08f5a00e00f5b00e08f5b0008003500f3
:1013e000881090000118a30002003200b1c2b300bf
:1013f000030037000108a3004c00320001c2b30013
:10140000017578004700370028609000c2c6b3001d
:10141000824f500006003a0011017800640051002c
:10142000800878001000be006011b800110037007d
:1014300012c7b300824f500003003200a2c6b300af
:10144000824f500006003a001101780068005100f8
:10145000800878005001be004000be000500370043
:101460001180e90080087800100078008000eb000f
:101470006011b800009cbe000294be00286290007b
:1014800085c6b300854f52000d00320025c6b3005b
:10149000854f520004003a000080fb008000eb0002
:1014a0006011b8000800370045c7b300854f5200ef
:1014b00003003200e6c24200854f520004003a00a9
:1014c0008000eb006011b800009cbe000294be00da
:1014d000081090000038a300140032003800be004d
:1014e0002801be00e00f5000e08f5800e00f5900c7
:1014f000e08f59000d00320080c7b30080cf540048
:101500000300320080c5b30080cf540007003a00ca
:101510007800900001c3b300017578000000e80076
:10152000097578000000e8007004980078009000c9
:10153000000545006a04980089407800670037007c
:1015400028619000c0c4b300804f510006003a00eb
:101550001101780068005100800878005001be0039
:101560004000be0005003700110178006400510002
:10157000800878001000be0031080700009cbe0003
:101580000294be00b8009000780090000100e000d6
:1015900002003d00d1c2b30008003700881090005f
:1015a0000118a30002003200b1c2b30003003700eb
:1015b0000108a3000400320001c2b30001757800e5
:1015c0000000e800700498007800900000054500d5
:1015d0006a0498008900fb00080078006500070095
:1015e0006000370028619000c3c6b3001180e90095
:1015f000834f5100220032000a003c00e4c1510038
:10160000834f51002500320083c1e800834f510011
:1016100013003200e8c15100834f51001e003a0010
:101620000a00370043c7b300834f51001b0032004c
:10163000e6c14100834f510018003200e9c151005a
:10164000834f510014003a000500370080087800ed
:1016500010007800485c900008487800410037008e
:101660008008780010007800680a9000cfa2de00a1
:10167000612bb9000498be000690be003900370007
:10168000800878001000780068099000cf91de0093
:101690000288be00330037001180e900800878001e
:1016a00010007800680c9000080878002d003700c2
:1016b0001180e9008008780010007800cf80de00fb
:1016c0006109b900009cbe000294be007800900041
:1016d000000545006a04980081c7b300080078003f
:1016e000d80307001f0037001180e9008008780048
:1016f000100578006a049800d80c90000900e000fa
:1017000004003d000a007800abfd0700800478006b
:1017100007003700090178008000eb000a0078001c
:10172000370307000000e000010032008a04500087
:10173000190c98000b0037007800900009757800ac
:101740000600370078009000000545000904e0001d
:1017500001003a0059c2b300094d78000000e800ca
:10176000700498000000eb004f0578004f04be00a5
:10177000000006002f04b000889fbe008a9fbe00b4
:101780008c9fbe008e1f78000007780081f79f00b5
:101790003e04be002e05be005e0890000000e00082
:1017a00002003d0060002000500f98008e0078007d
:1017b00020fb2f000f00400078030700e20f5000cd
:1017c0000a003a0030002000100f9800b1c9b300a1
:1017d0000ff097008140400040a22000e1cf500070
:1017e0000d003e0000a220000b0037000000e000ca
:1017f0000f00340030002000100f9800b1c9b30072
:101800000ff1970081404100c0a22000e1cf5000bd
:1018100001003e0080a22000ee009000b048780059
:10182000b06878001040780090409800f3003700ce
:101830000000e00005003a0022fb2f000f014100ec
:10184000001978008001eb00e70037006022b80043
:101850006033b8000800be000a01be00c0060700e1
:101860000000e00001003d000bf0a20070592700cd
:101870009f9897000088b900026a28001300200092
:101880001b070700640650009c9f9f0013003b004d
:1018900063061600c0ff2f00000666008c01ea00f8
:1018a000939f9f000da320000800be000a01be0008
:1018b000070037000c08a300030032003d02be0001
:1018c0002d03be00ac0707000c86d100e886460059
:1018d0000c00e000f7ff3c00180037000c00e000af
:1018e00018003200c0ff2f00000666009c9f9f007a
:1018f0000da320006000b8000200200003ff2300b9
:10190000070037000c08a300030032003d02be00b0
:101910002d03be00980707000c86d100e88646001c
:101920000c00e000f7ff3c000002be000203be0016
:101930000800be000a01be00930607000004be00b6
:101940000205be00de08900060c6b3000ff29700eb
:10195000804f5200040032006000200062c4b300d7
:10196000824f520002003a009f9a97006a8042001c
:1019700081004000f1b79f0001037800f30f53008e
:101980000200340037012000f7b79f0000c3b30006
:10199000c0779f0056fb2f000f0343000e00780016
:1019a000a0b79f00060778003d0037000800be0082
:1019b0000a01be00410707000006be007fb1970084
:1019c00068015100f2b79f004240a9000c003400aa
:1019d000660707000002be000203be000800be004a
:1019e0000a01be00d90707006022b80046782d0022
:1019f00077192400600707000004be000205be003e
:101a0000e80047008e0020000802be000a03be0066
:101a1000b4b79f00c5b79f00d6b79f00e7b79f0038
:101a20000c01be00010478000c003700a400200067
:101a300005002000c0fd2f000f0040005b020700e2
:101a40006fa89700ffa897000fb197009fb197006c
:101a500005c3b300056441000001be00e00f510062
:101a6000e08f5900030034000e07e900e10f470042
:101a7000eeff3a00880078003fb49700cfb497009b
:101a80005fb59700efb597000200370000c3b300c1
:101a9000806078000e07e900fcff3b00688740008b
:101aa0007fb397000600e000070034006022b80012
:101ab0006033b8000800be000a01be002d06070012
:101ac0000000e000b9ff3c000e0378002fb797003c
:101ad00051fb2f008f804000010353009f9b970014
:101ae00067804300909f9f00020037000603e900d3
:101af0000000e900010178008200780003c3b30010
:101b0000b1cf1100f9ff3200909f9f00de099000d5
:101b100061c6b3000ff29700814f520003003200fc
:101b200061c4b300814f520002003a000000e80097
:101b30000a0037001000200051c6b3008ff2970052
:101b400081cf5200050032000540780050c4b20039
:101b50000080fb000000e9004f00de008301400030
:101b6000868f510001003400860178000300e000f8
:101b70001d00350000c3b300868f510006003d00f4
:101b800062c279006940400041c3b300814f5200f6
:101b900001003c00694050008300e90081004100e1
:101ba00001003700840178000302e9000103780096
:101bb000a142780080cf5200faff320091c3b300f7
:101bc000814f500001003a00054be8000400e0009e
:101bd00005003d000201e9008301e8001f9b97001a
:101be0000603e800969f9f008ff397008700fb0095
:101bf0001f9a97000e007800060007004f07780034
:101c00004f06be004f05be004f04be002f04b100ba
:101c100000000600f0874700889fbe008a9fbe0034
:101c20008c9fbe008e1f78000004780081447800ed
:101c30000205be00040678000b00e00002003c0034
:101c40001b002000aaab200060c6b30080cf540068
:101c50000e00320060c4b30080cf54000b0032008d
:101c600070c6b30080cf54000300320070c4b300cc
:101c700080cf540081003a00e40f46007f00350019
:101c800058089000800f56007c003d000c06e800cc
:101c900060c6b30080cf54001000320060c4b300af
:101ca00080cf54000d003200081090000038a300cf
:101cb00004003a0058089000808f550001003d0054
:101cc0005b0c9800580890000c005000500c9800d5
:101cd00002003b000000eb00500c98001808900038
:101ce000e80090000c00e00026003c0002c3b300b6
:101cf000827078000000e800100c9800d80890006e
:101d00000100e00003003c00881090000138a300af
:101d100005003200e8009000e2c2b3008270780053
:101d20000000e800100c9800580890008c00ea00b1
:101d3000810f500001003d000006ea008c00ea001f
:101d4000210c9800000646005c0c98008b0f560092
:101d5000010034000b0678003c0c9800e80090006d
:101d600018089000008040000c0178008a0078007c
:101d7000f5fb0700580890000c0650004c0c98002a
:101d8000900037008c8f550018003d000080400007
:101d90000b0178008a007800ebfb07001808900020
:101da00000804500100c98008b0556002b0c980005
:101db000d80890000100e00003003c00881090006b
:101dc0000138a30006003200e8009000e2c2b30030
:101dd00082707800380890000000e800300c98000d
:101de00058089000400c98007600370000804000b2
:101df0000c0178008a007800d3fb070018089000d7
:101e000000004600100c98008c855500d808900002
:101e10000100e00003003c00881090000138a3009e
:101e200005003200e8009000e2c2b3008270780042
:101e30000000e800100c980058089000808f5500b2
:101e40000100340080057800e80090001808900038
:101e5000008040008c0045000b017800bafb0700b1
:101e6000180890000b004000100c980058089000d3
:101e70008b0550002b0c980052003700180890007a
:101e8000e80090009a7078000000e800100c9800bc
:101e9000d80890000100e00003003c00881090008a
:101ea0000138a30005003200e8009000e2c2b30050
:101eb000827078000000e800100c9800580890002c
:101ec0000000e000100034008b05e900808f550011
:101ed0000100340080057800e800900018089000a8
:101ee000008040008a00e8000b01780096fb0700a4
:101ef000180890000b004000100c98005808900043
:101f00008b0550002b0c9800e800900018089000fa
:101f100000804000095878000007e8000c00e0004d
:101f200004003500b1c2b300014878008e04780087
:101f300004003700d1c2b300014878008e04780055
:101f40000c06ea007d8557008006eb00090037008b
:101f5000a20020008c00780072805700310007003a
:101f60007fb097008fb89700016d78000006780069
:101f70008d06e8000c00e000f5ff3c000d00e000dd
:101f800009003a008e04780000c3b300805c78003a
:101f9000050037008d06e900fc80570061c07e0017
:101fa00002c3b300825c40000d00e000f9ff3c007a
:101fb000e8009000180890000080400080845400e1
:101fc000390c98000810900074006000f00f500069
:101fd0000e003a00980890007800900000804000c1
:101fe000a808900001004000b808900001004000df
:101ff000c808900001004000f8089000810f5000d0
:1020000002003d0000805000000c98004f0778004f
:102010004f06be004f05be004f04be000f01b100c9
:10202000000006008002780001037800110009001a
:102030000203d80080017800830a78000299b90071
:10204000020153009202980005007800000006008b
:10205000889fbe008a1f7800000478000800e00016
:102060000d003a00e8a02000700544008004eb0059
:10207000580078000000e00004003200f4ff070080
:102080000000e00001003d008084eb008a0f540056
:10209000f7ff3a002500370000002200180060001a
:1020a0008004eb0021003200a80490000f003700ec
:1020b00009015100384090000000fb0089007800c1
:1020c000b6f807000000e00007003c002800900080
:1020d0004004980060049800500c98001890a000ec
:1020e0008084eb0011003700808444004801900098
:1020f000828f5400eeff39002800900040049800c1
:102100009800780002c020000281600001003a00bf
:102110003800900001e8a30002003200600498003b
:1021200001003700500c98008004eb000900780093
:102130004f0578004f04be0000000600889fbe00d7
:102140008a9fbe0080047800010478002c003700cc
:10215000c800900068009000808f50000400390093
:1021600008007800c60007000000e00037003500d6
:10217000004020001800600009003200a10020008b
:1021800009007800b4000700800578000b00e0002b
:1021900003003200618514000a8545000400370001
:1021a0000900780004fb0700000578008005eb00bb
:1021b00048009000e8009000808050008a8f500016
:1021c00002003100010578008005eb000a0178006b
:1021d00089007800dcfa0700480090000a004000ff
:1021e000400498000b00e000040032000800780072
:1021f00097ff07000000e00014003a008a844400c2
:102200001904e000d2ff3a000080200018006000ae
:1022100006003200080078008dff0700800078007b
:102220000080eb000100e00009003a0001c020003e
:10223000988060000000eb0005003200480090002c
:10224000600498000000eb00010037000080eb0004
:102250004f05be004f04be0000000600889fbe0070
:102260008a9fbe008c9fbe008e1f780000067800fb
:102270000104780002007800830478000881b90026
:10228000020778000200e000420032000800e0008f
:102290004100320082057800c9009000690090007a
:1022a000808f500004003900090078007400070096
:1022b0000000e00029003500004020001900600007
:1022c0000a0032000b017800a10020000c00780009
:1022d0004b000700800678000d00e0000600320089
:1022e000610516000a854600040037000b057800da
:1022f0008006eb00010037000b05780049009000d4
:10230000e9009000808050008a8f50000200310068
:10231000010578008006eb000a0178008c00780047
:1023200089fa07008a855500490090000a0040009c
:10233000c00498000d00e00004003200090078009d
:1023400043ff07000000e00004003a000b00e0003b
:10235000020032000a064600cfff3700008020004e
:1023600019006000020032000900780038ff070001
:1023700000c02000190060000200320049009000f7
:10238000e00498008b055700110009008885d800eb
:10239000010037000000eb004f0778004f06be0039
:1023a0004f05be004f04be0000000600881f7800e5
:1023b0008a9fbe008c9fbe00000478000205be000c
:1023c0000406be000401be000a00be004804070067
:1023d000008cbe000c01be00710507000005550011
:1023e00081855d002a0498003b049800080078006d
:1023f0004f06be004f05be004f04780000000600e7
:1024000003003700b0cf1000050032000201e900e0
:10241000800178000200e000faff3a0000000500a9
:102420000300780000000600020037000304e0000b
:10243000060032000001780002007800b041780008
:1024400081cf5100f9ff3a00010037000001eb0095
:1024500002007800000006000001eb000002780096
:10246000b041780081cf510001003a0004017800aa
:102470000304e000f9ff3a000200780000000600c3
:10248000889fbe008a1f780000047800c800900072
:10249000680190000000eb00828f50003c00390082
:1024a000180078002200290002016000e20f5100ac
:1024b00007003200012024000000e00001003d0080
:1024c00001202000008c70000080eb0030003700fd
:1024d0000200260002006000820f500009003a004e
:1024e00038009000808f5000060039000800780006
:1024f000d7fe0700800078000080eb000100e000bc
:1025000023003a001805780000c020000000650094
:1025100018003a00a8049000600220000800400063
:10252000808f540013003a0000202000520307005f
:10253000200498000000e00005003a0029049800fb
:10254000490498008904e80039049800080037001d
:102550000a60a0000a0c78004004980001202000c6
:102560008080400031049800400c9800500c980086
:1025700023020700280090005004980038009000c3
:102580006004980000002600180c70000000eb00aa
:102590004f0578004f04be0000000600889fbe0073
:1025a00000047800e68440001900d0004500de00f9
:1025b000f27f2000820f500010003a00000ceb0068
:1025c000990478006f816400200020001b003a000d
:1025d000210190000200e00018003a001101900073
:1025e0000200e00015003a00100020001100e00099
:1025f0001200320020002000100037000000e00030
:1026000004003a00010078006a0207000000e000c0
:1026100008003c00f20028001901610001fe2300bf
:10262000810c710021c02f00010c40000080eb00e4
:1026300002003700000ceb000000eb004f04be006e
:1026400000000600fc874700889fbe008a9fbe00ee
:102650008c9fbe008e1f78000006780080c5b300f6
:1026600080cf50000a0032007740400080cf5000f9
:102670000a0032006940400080cf50000b00320059
:1026800090a8200080bf9f00ae0020000a00370005
:1026900082a7200082bf9f000600370093a8200079
:1026a00083bf9f008e0020000300370094a8200005
:1026b00084bf9f000e0120003c02be002c03be0020
:1026c0000605be000404be0040c6b30080cf500023
:1026d000030032006540400080cf50000b003a00fc
:1026e000e00f5200e08f5a00e00f5b00e08f5b00cc
:1026f00006003d006000b8006011b80004045000fe
:10270000858458000605590087855900e80f570051
:102710000400320040002000f00f570038003a005b
:102720000100370030002000e00f5400e08f5c0013
:10273000e00f5d00e08f5d0004003a00dc089000cf
:102740008d0120000100e000060032008e00e9004b
:10275000888060008fba9700e5c07800f1ef9f0095
:102760007d012000800078008100e9000500330031
:102770008b05d1000a85d3008984d3000884d30057
:10278000f9ff3700089ebe000a96be00120037000f
:102790008d06e9008e00e900848060000fb9970083
:1027a000e2c1780082fd2f000f01410003f17e009d
:1027b000800078008100e900050033008783d100a4
:1027c0000683d3008582d3000482d300f9ff37004b
:1027d000049ebe000696be003c02be002c03be0056
:1027e000e00f5200e08f5a00e00f5b00e08f5b00cb
:1027f0008b0034000d00e000e5ff3c00880037004e
:102800002c60900081c6b300814f50000b00320055
:1028100006003c000004e00008003200e6c0500062
:10282000814f50004e003a0004003700c1c6b3008b
:10283000814f50004a003a00210037000800e000b4
:1028400004003a005c0890008d0120000000e000c8
:1028500006003200110009000e84d8000fb997005d
:10286000e2c07800f1ef9f007d0120001100090017
:102870000e84d8000a003700110009000e04d800a9
:102880008d06e9000e81b900020454008fb897004c
:1028900061417c0081fd2f008f80400082f07e002e
:1028a000000478000800e000020032000d00e000a3
:1028b000f1ff3c00cfc4de00614db90025003700b8
:1028c000e00f5400e08f5c0004003a005c089000c8
:1028d0008d0120000000e000070032006171b900a6
:1028e0000800be002b0407008fb99700e341780071
:1028f000f3ef9f007d0120006171b9000800be0068
:10290000140407000b0037006171b9000800be0015
:10291000f70207008d06e90000f1b9000204540037
:102920000fba9700e4427c0084fd2f000f024200a2
:1029300005f27e000004be00e00f5000e08f58005a
:10294000020032000d00e000efff3c004fcdde0042
:102950008a057800089ebe000a96be003000370047
:10296000e00f5400e08f5c00e00f5d00e08f5d0041
:1029700004003a005c0890008d0120000000e00097
:10298000090032006172b900612bb9000800be0075
:102990000a01be00a80407000fba9700644278003d
:1029a000f4ef9f007d0120006172b900612bb90036
:1029b0000800be000a01be00980407000d003700a1
:1029c0006172b900612bb9000800be000a01be00a7
:1029d0009d0407008d06e90000f2b90004045400cc
:1029e0008fba970065427c0085fd2f008f824200e0
:1029f00084f27e00009ebe000296be003c04be0033
:102a00002c05be00e00f5400e08f5c00e00f5d007d
:102a1000e08f5d00020034000d00e000e8ff3c00a4
:102a2000e80f570010003a000c1090000038a30087
:102a30000d003200f78f560006003e0085fd2f0086
:102a40008f824200e5c07e0000c3b30080cf5000fb
:102a5000050032008d06e90002c3b30081fd2f009e
:102a60008f80400082f07e0078811600120e980060
:102a70006c00900083fd2f008f8141008d8041000c
:102a8000b1f807001c089000dc089000810f50008e
:102a900006003d0000805000000e98000c109000d1
:102aa0000040a100001698000f0037000100e00070
:102ab0000d003d008c109000f4806000f08f5000fd
:102ac00009003a007c099000fc0090008100510050
:102ad0000c09900082805000008050004240a90004
:102ae00001003400000e98004f0778004f06be002a
:102af0004f05be004f04be00cf01b100000006002c
:102b00000400fa00889fbe008a9fbe008c1f7800d8
:102b10000004780001067800f80d9000780090001d
:102b200080855500080890008085550018089000a1
:102b30008085550028089000808555003808900051
:102b400080855500480890008085550000022200cd
:102b500090bf9f0000032300a0bf9f0008109000bb
:102b60000028a30015003a000b00e0001300340019
:102b70000b0578008a047800e20f5500010036004a
:102b800029002000c801900009017800ee8057005c
:102b90005800900003000100500498000000e0007d
:102ba0008c0032006808900009004000600c98001a
:102bb000090555004240a900eeff3c007801900055
:102bc0000200e0000c003400c80190008c00780086
:102bd0005800900003000100500498008080eb0032
:102be0000000e0007c003200e808900078009000cf
:102bf00000804000600c9800880c90000900e00004
:102c00001100340009057800e28f540001003600fd
:102c10002a002000c80190000a017800ec805700cb
:102c20005800900003000100500498000000e000ec
:102c300068003200680890000a004000600c9800ac
:102c40008a845400edff3700180990000200e0006c
:102c50000c003400c8019000e8009000580090007b
:102c600003000100500498008080eb000000e000a9
:102c700059003200e80890001808900000804000d9
:102c8000600c9800a80c90000900e00011003400ce
:102c900009057800e28f5400010036002a00200068
:102ca000c80190000a017800ec805700580090009d
:102cb00003000100500498000000e00045003200cd
:102cc000680890000a004000600c98008a84540054
:102cd000edff3700380990000200e0000e003400dc
:102ce000e80090001808900080804000c801900023
:102cf0005800900003000100500498008080eb0011
:102d00000000e00034003200e8089000380890002d
:102d100000804000600c9800c80c90000900e000a2
:102d20001100340009057800e28f540001003600dc
:102d30002a002000c80190000a017800ec805700aa
:102d40005800900003000100500498000000e000cb
:102d500020003200680890000a004000600c9800d3
:102d60008a845400edff3700081090008000eb00cb
:102d70000028a300180032000b00e0001600340009
:102d80008b04780009057800e28f540001003600ba
:102d90002a002000c80190000a017800ee80570048
:102da0005800900003000100500498000000e0006b
:102db00008003200680890000a004000600c98008b
:102dc0008a8454004240a900eeff3c008000eb00e2
:102dd000010037008080eb00010078004f0678008a
:102de0004f05be004f04be000080fa000000060040
:102df0000108780000000600207a210061003700f9
:102e0000881f7800c8ab20001804e00003003a00d7
:102e1000f9ff070020c0b300004c78004f04780091
:102e200000000600889fbe000004780008007800bb
:102e300087fc070080047800000420001800600070
:102e40000200320028009000a60007000000eb00fe
:102e500020049800384090000004e0000500350090
:102e60000000fb0044f507000000e0000100320014
:102e70008084eb00181090000000e0000800320091
:102e800074f507000000e000010032008084eb00d0
:102e900018109000930007000000eb001014980039
:102ea0000008200018006000150032000001eb004f
:102eb0006000b80003a120000202d00063027a0083
:102ec000880f520005003a00000040008180480051
:102ed000008041000008eb00060037006100400060
:102ee000e08048000201e800e80f5000e08f580041
:102ef000f0ff3a00080078007a0007000e00370063
:102f0000000c780000c0eb00304498006002200004
:102f100008004000200498004004980050049800e5
:102f2000400c980060049800500c980070049800c1
:102f300076004400000c9800090078004f04be00a1
:102f400000000600881f78000004eb006140b80014
:102f5000e2ff2f00f3ff2f0091020700e2a1200003
:102f6000620078000000e00001003200adff0700c1
:102f70000804e800e80f5400f4ff3a004f0478001a
:102f800000000600010020000100e00008003200ff
:102f9000010080000100e000050032008100e9002e
:102fa000010088008100d0000200800000b178009c
:102fb00000000600e600400011017800050028002e
:102fc000850261006f016100820878000200320012
:102fd0001200200011003700a00190001200200014
:102fe0000300e0000d003a00900190000300e000b3
:102ff0000a003a001000e00008003a0036003700ee
:10300000640340009608780080017800530b780034
:1030100090097800040878007001510011027800ce
:103020000400e000f6ff32001300370064024000a5
:10303000140378004f33de0083814100830873005e
:1030400080017800d3037800cf3bde0014037800c2
:1030500006034300068a730013027800040242004c
:10306000100378004f33de0086097200900178006b
:10307000038841000201e90091017800ef8f5100bf
:10308000eaff360010003700800178005303780013
:103090004f33dd001002d1000408730064024000c9
:1030a00094037800cf3bdd001303d10086897300c1
:1030b000110378004f33dd009401d100030a73003f
:1030c0009108d1000201e80091017800ff8f5100c2
:1030d000edff3e00ef8861009188720002007800e9
:1030e000000006000000e0002f003200c001780060
:1030f000e38f51002c0036000308a3002a003a0099
:10310000b15580000100e00002003200810f500044
:103110000400310011009800b055880016003700f7
:1031200082007800110190000200e00002003200ed
:10313000800f5100faff39001102780084824000ac
:10314000850f500018003900808f520003003a00ac
:103150008308420001007800070037000200e00009
:103160000300320083014000830f51000e0039003c
:103170001200980090009800900090000100e0007c
:103180000900320010014000828f500006003a0012
:1031900042ab20000009eb0010017800110841004b
:1031a000910090001100980000000600889fbe006a
:1031b00000047800a15580000100e0000200320008
:1031c000010078000d003700b155800060ab200091
:1031d00004003700910f5400250036000180e800fc
:1031e000910090000100e000faff3a001000370063
:1031f000920f54001e0036000280e8001001780093
:103200000200e000faff3a0011017800b155800099
:1032100060ab200004003700910f5400140036000a
:103220000180e80091009000828f5000faff3a0080
:10323000f9558000888f540001003100880478001f
:1032400009007800360007000000e00004003a00a2
:10325000888f5400050032008904d100f5ff370043
:10326000091878009fff0700d2ff37000000eb002d
:103270004f04be0000000600881f78006304400071
:103280000800a1008000eb00800f540021003600f0
:10329000e30f540001003e004800200008007800c1
:1032a000c2ff07008000eb000000e00019003200c0
:1032b000900078009101780064815100880f5100de
:1032c0000300310011019000020878000700370068
:1032d00008814000020878009101900013019800d5
:1032e0001001780011091400880878001001780096
:1032f0000000eb000200e0000400320092019000a8
:103300000300e000010032000280e800a0558800c0
:103310008180e800010078004f047800000006007a
:10332000800078000000eb000100e00005003400a0
:103330000100780050f40700e10f400001003a005e
:103340000000eb000000060000c0da0000000600ec
:1033500000c0da000000060000c0da00000006002d
:103360008f1fd100130307008f87e9000000e000e2
:1033700000000600809feb000e0307008f87e90026
:103380000000e000000006002800fa00889fbe0050
:103390008a9fbe008c9fbe0003866b008f000700d3
:1033a0006400e100440032006408e1004a00320099
:1033b0006100e100460032006108e100490032008e
:1033c000ec0647006000b8003d02be003d03be00b1
:1033d000f48657006011b8003d04be003d05be00f4
:1033e0007d0320000b0037000000a0008d06e900df
:1033f000130032000402420085824a0006034b009b
:1034000087834b0000004000818048000201490092
:10341000838149000802520089825a000a035b0036
:103420008b835b00f0ff3b000802420089824a0068
:103430000a034b008b834b008d06e900edff3a0039
:103440008482720086827200f707b200878272005f
:1034500001003200150020001e0490003e0b900079
:1034600006035400e63fb0000368a30007003200e3
:103470000000a7000500a0008301d1000281d30055
:103480008180d3000080d3000603e8008301d100cf
:103490000281d3008180d3000080d3000002eb00c2
:1034a0000482d2002100070003f0a1000cf0a70065
:1034b00003f0a0005d003700640247006408e100eb
:1034c000570032003400be003401be00f6ff370062
:1034d0006108e100520032006011b8006000b800dd
:1034e000f1ff370003ff270002002000fbff370039
:1034f000839f68000100e00002003d0060001000b2
:10350000e08018000300e00002003d0060011100af
:10351000e08119000f0107004f00e00002003b00ae
:1035200060001000e0801800000006001800200075
:1035300057002000080453000d003d000600200045
:1035400097fc2f000740e1001e00340084827200c7
:10355000610260008301d1000281d3008180d30029
:103560000080d3000804e800f8ff3a00470020007c
:103570006104600005047400040464000d0032005e
:1035800061004000e080480060014900e08149009e
:1035900003b8a500070032000603e8006538e10023
:1035a00004003a008301d1000281d3008180d3005e
:1035b0000080d300f87f20000830e10003003500d0
:1035c000080378006000b8006011b8004433dd00e3
:1035d000f300b20083017300000006006804470096
:1035e0000294be000094be00fc0447008694be0016
:1035f0008494be0009007800b70207000800780034
:10360000b502070099007800814f70000b003b0065
:103610000800be00900207004f00b1000300370011
:10362000f3ff2700f2ff2f006110b9004f06be0024
:103630004f05be004f04be000080fa0000000600e7
:1036400081037800a1f407000001be006000b8000b
:103650000478a30013003a006220e10015003e0048
:103660000d0039008301d1000281d3008180d30095
:103670008301d1000281d3008180d3008301d10076
:103680000281d3008180d3000538b000c42add0058
:10369000f300b2008381720007f0a70003f0a000de
:1036a00000000600f3ff2700f2ff2f006110b900b1
:1036b000fbff370003ff2700f7ff37001400fa0075
:1036c000889fbe008a9fbe008c9fbe000004be0083
:1036d0000205be00680047000a90be000890be00c8
:1036e0007d0207000070a7000bf0a100304320000e
:1036f0009e02900080825200b0fe2f000028e10060
:1037000011003d00b0fc2f000028e100150034003e
:103710001e0990008e0890007e0090000501b00008
:103720000201d1008180d3000080d3008502e8002f
:10373000fbff3a000b00e000bcff3b006000100004
:10374000e0801800b9ff3700f0ff2f00f1ff2700dd
:103750000b00e000b5ff3b00010028000000200046
:10376000b2ff37006000b800b0ff37004f89de00bd
:10377000820178007f0237002800fa00889fbe008f
:103780008a9fbe008c9fbe0003866b0093ff0700dc
:103790000028a30064003a000128a30067003a0053
:1037a0000008a30062003a000108a30065003a0087
:1037b0001e009000be08900081064000ed3fb10061
:1037c000f4805700ee019000111ab8008e099000a5
:1037d000311bb8009e099000311cb800511db80083
:1037e000f485570046000700fe0190003a000700ec
:1037f0008b85e8003e0007008e099000400007001e
:10380000ee019000340007008b85e80038000700c7
:103810008e099000400007009e0990001b18b80018
:10382000890440000a854800fe019000340007002a
:103830008b85e80038000700ee019000300007009b
:103840008e0990001b18b800890440000a854800c2
:103850000a98a30008003a000402420085824a0048
:1038600006034b0087834b0008044c0089844c00fe
:103870000a054d008d06e9008482720085027300fe
:103880004c3add0085027200010032001500200074
:10389000443ade001400b2004538de00cb45dd00be
:1038a0000b007000c540de00cb4ddd008b8070004a
:1038b0004549de00cb55dd000b017100c551de002e
:1038c0000d03780019ff070003f0a1000cf0a7001a
:1038d00003f0a00055ff37001b18b8008502400018
:1038e00006834800e0834b0060044c00070037006b
:1038f0001b18b8000603400087834800faff370012
:103900001b18b8008703400008844800e0844c007e
:1039100060054d00000006001b18b80008044000b8
:1039200089844800faff37000108a3003cff3a00f1
:103930005800be005801be00e3ff37000008a30096
:1039400037ff3a0009047800f9ff370007f0a200ba
:103950001b0137006022b800060220000000d000e2
:103960008180d2000482d2008582d2000000a000b3
:103970000202520083825a00030031000202420018
:1039800083824a000000a1000603e900f3ff3a0029
:1039900000000600efff07000400be000000060064
:1039a000020ab900001bb9000200b8008100420001
:1039b0008100430000000600889fbe008a9fbe0071
:1039c00030044200b0844a0030054b0090854b0023
:1039d0006000b1000898be000a90be000440e100fb
:1039e00005c8e10006d0e10007d8e100020031007f
:1039f000680040001008e8004f05be004f04be00fc
:103a000000000600889fbe008a9fbe003004be00f2
:103a10002005be000418540005985c0006185d00df
:103a200007985d00110020000440e10005c8e10096
:103a300006d0e10007d8e100010039008000eb006a
:103a4000108810004f05be004f04be0000000600a5
:103a50001200fa00889fbe008a9fbe008c9fbe00a5
:103a6000e0b79f00f1b79f0082bf9f0093bf9f0008
:103a70000605be000404be000000eb00d0b79f00a6
:103a8000c0b79f00b0b79f00a0b79f0090b79f003e
:103a90000006eb005fb19700cfb0970082014100b4
:103aa0003fb097000200e00004003d00370007002f
:103ab0007e805700c0ff0700030037003300070077
:103ac0007e805700cfff0700dfb697000d00e000b3
:103ad0000c0035006fb29700ffb297000fbb970044
:103ae0009fbb970010002000010020006011b8006b
:103af00000027200818272000203730083837300ec
:103b00001b0007000c06e80001042000810f56008e
:103b1000e0ff3a000d00e00004003d000802be0096
:103b20000a03be007e805700a3ff07005fa897002e
:103b30000000e00005003a001fb29700afb2970006
:103b40003fb39700cfb39700090007006fb097000d
:103b5000ffb097000fb997009fb997004f06be00be
:103b60004f05be004f04be000080fa0000000600b2
:103b70000100070000000600a4b79f00b5b79f0032
:103b8000c6b79f00d7b79f00000006004f09de00b0
:103b900082817100b3b79f004f01de008180400039
:103ba00082807000a1b79f008fb097004f09de00a0
:103bb000000040000200700090b79f007fa89700af
:103bc0004f01de00818040008280700081b79f003d
:103bd0000d0007004f3ade000000400004007000b6
:103be000f0af9f00080007000402420085824a00ef
:103bf00006034b0087834b00dfff07000802be006f
:103c00000a03be00000006002fb29700bfb2970063
:103c10004fb39700dfb3970000000600881f7800bd
:103c200018002000881f780089ff07008f87e900af
:103c30004f04780000000600801feb0084ff07009f
:103c40008f87e90000000600889fbe008a9fbe00a3
:103c5000e00f5000e08f5800e00f5900e08f59004e
:103c60000c003d006044b8006055b80000005400ee
:103c700081805c0002015d0083815d0018002000ee
:103c80001500070008003d00180007000004eb00c5
:103c9000050037000004eb000f00070002003d00a4
:103ca0001200070018002000dcff07000800e000f9
:103cb000060032006022b8006033b80000005200f5
:103cc00081805a0002015b0083815b004f05be00ca
:103cd0004f04be0000000600e00f5200e08f5a00c3
:103ce000e00f5b00e08f5b00000006006044b8005e
:103cf0006055b8000402540085825c0006035d0034
:103d000087835d0000000600889fbe008a9fbe007a
:103d10008c1f7800e00f5000e08f5800e00f590032
:103d2000e08f59000d003d006044b8006055b800b8
:103d30000000540081805c0002015d0083815d0011
:103d40001c0020000820e10009a8e1000ab0e10001
:103d50000bb8e1000d003d00080037000006eb0045
:103d6000e00f5200e08f5a00e00f5b00e08f5b0035
:103d700006003d006044b8006055b80004025400dd
:103d800085825c0006035d0087835d00aaff070053
:103d90000c00e000060032006022b8006033b8007a
:103da0000000520081805a0002015b0083815b00a9
:103db0004f0678004f05be004f04be00000006000d
:103dc0002800fa00889fbe008a9fbe008c9fbe001c
:103dd00007067800878669000c003b000304780022
:103de0008704780008f0a10009f0a100840f5000ba
:103df000858f5800860f5900890f5c00030033003f
:103e00000cf0a20001003a000cf0a100f3fd070045
:103e10006400e1005f003200780147006408e100bf
:103e2000610032006c014700748557003200be000b
:103e30001201be003a04be001a05be001e03900027
:103e4000be0a90008503530006003d000004fd00fb
:103e50008104fd000205fd008305fd008703ea00e3
:103e6000050378000df8a30004003200600414007c
:103e7000e0841c0060051d00e0851d006022b80084
:103e80007d0320000d38e1008006eb000b003900b7
:103e90004433dd00f300b2008301730039003700c2
:103ea000848272000d027800e10664008b85d100e7
:103eb0000a85d3008984d3000884d3008703e900ee
:103ec000f7ff3b0008004000898048000a014900d4
:103ed0008b81490004003b0060001000e080180066
:103ee00060011900e08119000358a30009003200a5
:103ef0008d82720084827200610260008301d100b1
:103f00000281d3008180d3000080d3000603e80043
:103f10001b0037000348a30017003a000600e0002a
:103f2000170034000603e9000d00a300000048005c
:103f30008180480002014900838149000348a300b1
:103f40000f003a000600e000090034000603e90013
:103f5000000040008180480002014900838149003f
:103f600001003a000003eb000348a300f5ff320014
:103f70006022b8000200370084827200618266000d
:103f80006afd070003f0a1000cf0a70003f0a000f9
:103f9000a6fd3700640147006408e10002003a0012
:103fa0000df8a3009efd3a003200be001201be00d3
:103fb0009efd3700889fbe008a9fbe008c9fbe007a
:103fc0000404be000605be00809fbe00829fbe00a6
:103fd0002f000700040678000800be000a01be009a
:103fe0002b000700840678004f03be004f02be007e
:103ff0008d4f76007fb0970013003300f0ff2f0045
:104000008b8f6b0006003b000d0666000c00a700be
:104010000a00370007f0a600100020000a00370051
:10402000880f5200898f5a008a0f5b008b8f5b00cc
:10403000030039001000200001003e0000002000b5
:1040400007f0a7000000ea004f06be004f05be00c3
:104050004f04be0000000600e48240001078a30078
:1040600007003200640240001178a3003400be0053
:104070001401be00040032000330a7000000060057
:104080003500be001501be000330a0000000060090
:1040900005ff270005826100070032000428e100c7
:1040a00001003200240005000600070001003a006c
:1040b000440005000408050002000700f9ff3a006b
:1040c000140005006f82610081027000850271009a
:1040d0008502720000000600800078005002be00d9
:1040e0005003be004439de00f700b200f37f200029
:1040f00003016100090032000218e10016003a00d5
:104100008501720083017300838173000008200021
:1041100015003a00400020001300370085017200ae
:10412000830173008381730005003a0004a8be0078
:1041300006a8be00100020000b0037000201e900b5
:104140000402420085824a0006034b0087834b002d
:104150000748a300f9ff32000740a00004a8be00f2
:1041600006a8be0020002000800098009200980061
:1041700000000600881f7800030478000300e000b8
:1041800007003d0060001000e08018006001190089
:10419000e081190002003b0001f02d000300370010
:1041a0000400070008f0a70003f0a0004f04780007
:1041b00000000600889fbe000082700004027100ab
:1041c000048271002400320036432000c500200024
:1041d0008383cf000a0039000541b1008283cf00fc
:1041e000070039000541b1008183cf000400390088
:1041f0000541b1008083cf00010039000541b100c5
:1042000085c353006022b800120032000a003b0050
:1042100084827200610260008301d1000281d300b8
:104220008180d3000080d3000603e8008743e800c4
:10423000f7ff3a0007003700000040008180480087
:1042400002014900838149000603e9008743e90030
:10425000f9ff3a00b5fc07004f04be00000006005d
:020000040000fa
:104260000a0d00005365000072690000616c0000d7
:10427000207000006f720000742000004f4e00009c
:104280004c4900004e45000020000000535500003e
:10429000572c000030310000303200003033000075
:1042a0003034000030350000303600003037000078
:1042b000303800003039000030300000304100005c
:1042c0003042000030430000304400003045000020
:1042d000304600002c00000025640000000d0000a6
:1042e0000a0000000d0a0000536500006e64000023
:1042f000696e000067200000257300000a000000be
:104300002b0d00000a000000532d00002c4200007d
:104310004d5300000d0a000000530000422c000025
:10432000340d00000a000000534600002c3100004c
:104330000d0a000000530000522c00003030000035
:104340003030000030300000303000000d0a000036
:1043500000530000532c00004330000030300000b8
:1043600030300000303100000d0a00000050000025
:104370005a0d00000a000000505300002c310000cc
:104380003132000032330000333400003435000095
:104390003536000036370000373800003839000065
:1043a000393000003041000041420000424300002b
:1043b000434400004445000045460000460d00000f
:1043c0000a000000504300002c3000003130000093
:1043d000323000003330000034300000353000004f
:1043e000363000003730000038300000393000002f
:1043f0003030000041300000423000004330000007
:104400004430000045300000462c000030320000ef
:104410002c300000360d00000a000000534e000052
:104420002c4200004d5300000d0a00000052000015
:104430002c3100000d0a0000004100000d0a0000b0
:10444000000a00000d740000656e0000736100003a
:104450006f200000256400003a09000020250000bc
:10446000660000000a0d0000746500006d70000019
:10447000657200006174000075720000613a00000e
:104480000920000025660000000a00000d4300001e
:104490006f720000726500006e740000653a0000e3
:1044a0000920000025660000000a00000d740000cd
:1044b000656e0000736100006f2000006d650000f4
:1044c000643a00000920000025660000000a000090
:1044d0000d630000656c0000756c00006120000039
:1044e000256400003a090000202500006400000057
:020000040000fa
:1044f0000200fa000000eb00000f78000000eb0063
:10450000000f780005003700208220001e004000c8
:104510008040eb00014878001e0fe800b003200047
:104520009e007800808f5000f7ff34002028ef00b5
:104530000080fa00000006000000fa0005a1a900b2
:1045400004c1a9000421a900200880000040a000a7
:104550000050a100200888008c60a8008460a90099
:1045600000712200100888000021ef0005e1a8007a
:104570000080fa00000006000000fa0011a1a90066
:1045800010c1a9001021a900800880000040a000ef
:104590000050a100800888008cc0a90084c0a90038
:1045a00010b72000600888000621ef0011e1a80084
:1045b0000080fa00000006000000fa001221ef005f
:1045c000900880000040a0000050a00090088800e3
:1045d0008ce0a80084e0a9000a21ef0000d02700a9
:1045e0007008880013e1a8000080fa0000000600af
:1045f0000000fa0085a1a8008461a900200c8000b9
:104600000000a1000010a0000020a000200c8800e5
:104610008221ef0060088000000c88008ba1a800b8
:104620008a61a900500c80000000a1000010a000c9
:104630000020a000500c88008821ef006008800056
:104640000000d100300c880091a1a8009061a90061
:10465000800c80000000a1000010a0000020a0003d
:10466000800c88008e21ef0061088000300020005f
:1046700000017800110009008280d800600c8800d9
:1046800097a1a8009661a900b00c80000000a100cd
:104690000010a0000020a000b00c88009421ef00c2
:1046a000600880004200de00900c88000080fa0064
:1046b000000006000000fa0010fe2d00e040880017
:1046c00070b62700f0408800f1408000e040800094
:1046d000f200200089ef0700c01080000060a000f9
:1046e0000070a100c01088008f00a80016c2a900a9
:1046f00020002000c055880000132a0099f107000f
:104700000080fa00000006000000fa00a1e2a80004
:10471000a1a2a900001580000080a1000090a100c6
:1047200000158800001580000050a0000060a00067
:104730000070a00000158800a042a900a022a900d6
:104740001015800000d0a10000e0a10000f0a10041
:1047500010158800a342a900a2e2a900101580004c
:104760000020a1000030a1000040a1000050a100e5
:1047700010158800a222a900a202a900211580001c
:1047800000f021000100700020158800a4e2a900bb
:1047900021158000f0032000010070002015880022
:1047a000a782a900301580000080a1000090a10020
:1047b00000a0a10000b0a10030158800a682a900c9
:1047c000301580000000a1000010a1000020a10011
:1047d0000030a100301588000080fa0000000600bb
:1047e0000200fa00000f7800110020001e0078007f
:1047f0000008dd00800078003016800001007000a5
:1048000030168800110020001e0078000008dd002e
:104810000080ea0080007800401580000080600081
:10482000401588000080fa00000006000400fa002d
:10483000100798001e009000004078006f40600054
:104840000080fb006f0060003215800001ff2f0028
:10485000810061000100700030158800a022a800ce
:104860000000000000158000620060000000e00011
:10487000fcff3a00000000000015800061006000ad
:104880000000e000fcff320000148000000f780000
:104890001e0078000080fa00000006001000fa00f8
:1048a000881f7800700798006000b800008fbe0075
:1048b0006000b8005007980061079800024080002f
:1048c0001340800022079800330798001000200052
:1048d00040079800180037004e009000c200dd002d
:1048e00000802000008040001000be0018c0b3000f
:1048f0002e019000be019000a4ef07000000e00030
:10490000010035000044eb000804e000070032001d
:104910004e009000c200dd000080200000804000ba
:104920001001be0022079800330798004e00900047
:104930000000e800400798004e009000e30f500090
:10494000e5ff34000000eb00400798000c00370042
:104950004e009000c200dd0000802000008040007a
:104960001000be000001be001e00be00e8ee070001
:10497000008fbe004e0090000000e8004007980045
:104980004e009000e30f5000f1ff340002002000c1
:10499000030824001e00be003aef070050079800ed
:1049a000610798000000eb00400798002c003700da
:1049b0004e009000c200dd0000802000008040001a
:1049c0001000be0018c0b3005e019000ee01900020
:1049d00070ef07000000e00001003c000044eb0025
:1049e0000804e000070032004e0090000000400084
:1049f000fe009000008040001100200001087800b7
:104a0000140037004e009000c200dd00008020003e
:104a1000008040001000be0018c0b3005e0190008e
:104a2000ee01900059ef07000000e00001003500a2
:104a30000044eb000804e000060032004e00900045
:104a400000004000fe009000008040008000eb006d
:104a5000010878004e0090000000e8004007980030
:104a60004e009000e30f5000d1ff34005e00900034
:104a7000ee0090004f0478000080fa00000006006d
:104a80001000fa00889fbe008a1f78007007980007
:104a90000000eb00000f78000000eb0050079800ca
:104aa00000408000114080003cef07001007980094
:104ab0000000eb006007980010002000200798001d
:104ac0001b0037002e009000c200dd000080200097
:104ad000008040001004be001e009000cf80de0069
:104ae0004fef07001ac0b3000001be000800be006f
:104af00026ef07000000e000010035000045eb0054
:104b00000a04e000070032002e009000c200dd0021
:104b100000802000008040001000be001fef070052
:104b2000100798002e0090000000e8002007980071
:104b30002e009000e30f5000e2ff34000000eb0075
:104b400030079800110037001e007800cf80de008b
:104b500033ef07000002be003e009000c200dd00ff
:104b600000802000008040001000be000001be0058
:104b70000400be0066ee070008ef0700000f780093
:104b80003e0090000000e800300798003e009000d2
:104b9000e30f5000ecff34009e007800400020003e
:104ba00000017800110009008200d8005007980029
:104bb000de0090001e00900000804000600798001a
:104bc0000000eb00400798002c0037004e009000da
:104bd000c200dd0000802000008040001004be0004
:104be0006e009000cf80de000def07001ac0b3000a
:104bf0000001be000800be00e6ee07000000e00075
:104c000001003c000045eb000a04e00018003200ff
:104c1000060037004e00900000004000fe009000ab
:104c20000080400011002000010878004e00900034
:104c3000c200dd0000802000008040001004be00a3
:104c40001e009000cf80de00f5ee07001ac0b30012
:104c50000001be000800be00ceee07000000e0002c
:104c600001003c000045eb000a04e000e9ff3a00c7
:104c70004e0090000000e800400798004e009000b1
:104c8000e30f5000d1ff34004f0578004f04be0001
:104c90000080fa00000006001e00fa00889fbe0097
:104ca000600f98006000b800008fbe0060662600ac
:104cb000e109240020079800310798000000240033
:104cc000c16124004007980051079800303321004b
:104cd00051392400600798007107980000002b00ec
:104ce00061552400000f9800110f98006e08900085
:104cf0008000eb00cdee07000200200003482400f6
:104d000060ee07002e019000be01900073ef0700d7
:104d1000200f9800310f98002e099000be099000d6
:104d20002e009000be009000f8ed07002e099000c4
:104d3000be09900053ee07000001be004e00900037
:104d4000de0090004fee0700008fbe006e01900065
:104d5000fe0190000e0890009e0890005fef070093
:104d60000004be004e019000de0190001e00be0057
:104d700044ee070002ef07006e019000fe01900074
:104d800056ef07000e0990009e099000e0ed070025
:104d90000001be000800be003aee0700400f980078
:104da000510f980032332900833824004e089000b8
:104db000de089000d5ed0700020020000312240059
:104dc00046ef07004f04be000080fa000000060016
:104dd0000200fa00000f78001e0078008000eb004f
:104de00092ee0700b2472100e30924003bef0700e1
:104df000020020000348240022ee07000080fa0091
:104e0000000006000800fa00889fbe00000f78002e
:104e10001107980022079800330798001e009000a1
:104e2000cf80de007eee07000004be001e00900072
:104e30001e004000cf80de0079ee07000001be00ba
:104e40000800be000fee07002e019000be0190008a
:104e500022ef07004f04be000080fa0000000600a9
:104e60000200fa00000f78001e007800cf80de00fc
:104e70006bee07000080fa00000006000a00fa004e
:104e80002007980031079800420798006000b8009a
:104e9000008fbe002e009000cdff0700008fbe00e7
:104ea0001e01be00ce0090003e009000d5ff07001e
:104eb0000080fa00000006000600fa00881f780053
:104ec0006000b800008fbe000000eb0020079800d3
:104ed0000000eb0020079800160037000181200039
:104ee0002e0090004200dd00008040001000be0057
:104ef00018c0b3001e01be0026ee07000000e0004f
:104f000001003d000044eb000804e0000600320010
:104f1000018120002e0090004200dd000080400052
:104f2000301f7800201778002e0090000000e80065
:104f3000200798002e009000e10f5000e7ff34009a
:104f4000904c8000a14c800018c0b3000001be004e
:104f50001e00be000fee07000000e00001003c0054
:104f60000044eb000804e00003003200ca02a8007d
:104f700010002000f04288001e00be004f047800a0
:104f80000080fa00000006000000fa000421a900d9
:104f900004c1a900200880000040a0000050a0002b
:104fa0002008880005a1a9000021ef000080eb0087
:104fb00010088800a004800000c0a10000d0a0005c
:104fc00000e0a100a00488008460a9008c60a80013
:104fd00005e1a8000080fa00000006000000fa00c9
:104fe000de42a800de62a900e242a900f000200033
:104ff000a0108800601080000010a1000020a10017
:10500000601088000c02a9000da2a9000d42a900a1
:105010008d40a9000fe2a9008d20a800c0048000e7
:105020000040a0000050a1000060a000c004880063
:10503000701080000060a1000070a1007010880056
:105040008520a9000de2a8000f42a8000080fa0008
:10505000000006000600fa001007980021079800db
:105060000000eb00000f78000d003700000000008a
:105070007110800000202000008060000000e0002f
:10508000fbff3a001e0078009e0090000080400068
:10509000104078000000fb00801088001e0fe80020
:1050a0002e0090009e007800808f5000efff3500aa
:1050b0000080fa00000006007200fa000000eb0019
:1050c000000f78000000eb00100798006400470014
:1050d0006202200061142a001bef07000000eb00b1
:1050e000000f7800280037001e007800c200dd00a5
:1050f00000802000008040001000be000200200060
:105100000312240075ee0700a4ed070010079800b5
:105110001e0090000000e00003003d001e00900013
:105120000000ea0010079800000420000e00400074
:105130009e009000811f7800c1162a00811f780010
:1051400050ef0700e4875700000420000e004000e5
:1051500019ef0700e20f5000060032000ec0900069
:1051600010c7980000c3b30000c798000040eb00d0
:1051700020c79800010420008e8040006400470092
:1051800003ef07001e0fe8001e007800e30f500039
:10519000d5ff3400008120001002be0000812000f5
:1051a000b0009000200090000001be000400be008e
:1051b000d7ec0700020020000300240031ed0700b7
:1051c000020020000312240044ee070073ed0700e4
:1051d000100798001e0090000000e00003003d0052
:1051e0001e0090000000ea00100798000004200054
:1051f0000e0040009e009000811f7800c1162a001a
:10520000811f78001fef0700e4875700000420008b
:105210000e004000e8ee0700e20f500006003200ea
:105220000ec0900010c7980000c3b30000c79800dc
:105230000040eb0020c79800010420008e80400051
:1052400064004700d2ee0700c0408000d1408000db
:10525000020020000312240020ee07004fed07009b
:10526000100798001e0090000000e00003003d00c1
:105270001e0090000000ea001007980000042000c3
:105280000e0040009e009000811f7800c1162a0089
:10529000811f7800fbee0700e48757000004200020
:1052a0000e004000c4ee0700e20f5000060032007e
:1052b0000ec0900010c7980000c3b30000c798004c
:1052c0000040eb0020c79800010420008e804000c1
:1052d00064004700aeee070064004700b6ee07002a
:1052e000e40047000080400032002000f1162a0050
:1052f00095ee070064004700801f780020172a0001
:10530000801f7800fcee0700e48757006400470028
:10531000a9ee070080007800640047004dff0700f9
:105320000080fa00000006000000fa0080ee26006f
:10533000612a2000350207003100200000182a00f1
:1053400044ff070080a92300d10220002f0207009c
:105350008100200040182a003eff070080a923009a
:10536000d10220002902070061002000d0182a0085
:1053700038ff070080a92300d10220002302070084
:105380006100200040192a0032ff070080a9230095
:10539000d10220001d020700d1002000b0192a0010
:1053a0002cff070080a92300d1022000170207006c
:1053b000d1002000901a2a0026ff070080a92300b0
:1053c000d10220001102070041002000701b2a00ba
:1053d00020ff070080a92300d10220000b02070054
:1053e00051022000c01b2a001aff070080a92300d9
:1053f000d102200005020700b1022000201e2a0071
:1054000014ff070080a92300d1022000ff0107003c
:1054100081002000e0202a000eff070080a9230061
:10542000d1022000f90107005100200070212a005c
:1054300008ff0700003e290081382000f301070023
:1054400031002000d0212a0002ff07000080fa006e
:10545000000006000200fa00000f78001e0078002d
:1054600010007800e10f500002003a00d602a800b8
:1054700001003700d602a9001e80e8001000780065
:10548000e10f500002003a00d622a80001003700c8
:10549000d622a9009e0078006480400010007800a9
:1054a000e10f500002003a00d642a8000100370088
:1054b000d642a9009e007800668040001000780067
:1054c000e10f500002003a00d662a8000100370048
:1054d000d662a9000080fa00000006001e00fa0053
:1054e000889fbe008a9fbe008c1f78000024240085
:1054f000200798002e009000cf80de00c8ec070047
:1055000062642b0033ff230074ed0700a3ec070057
:10551000000678002e009000cf80de00c0ec07006f
:10552000e2ce2700f3f923006ced07009bec0700a7
:10553000800578002e0090004205dd002e009000ce
:10554000cf80de00b6ec0700e2ce2700f3f923009f
:1055500062ed070091ec0700800478002e009000b7
:10556000cf80de00aeec0700723d2a00030c240061
:105570005aed070089ec0700000478002e00900027
:10558000cf80de00a6ec0700e2ce2700f3f923006f
:1055900052ed070081ec0700000078005c079800de
:1055a0006b0798007a079800090f9800180f980069
:1055b000200f98000000eb00000f78000000eb00c7
:1055c000100798006000b800300798004107980065
:1055d00040a7a900c6fb070036fc07007ffe0700b6
:1055e000f5fb070048fc0700d3fb0700e2fb0700c0
:1055f0004dff0700dec2a900e2c2a800d222a90026
:10560000d622a800d262a900d662a800d202a900c0
:10561000d222a900d242a900d262a9000000eb0068
:1056200010079800090037001e009000000040009d
:1056300000004700760040008000eb000108780081
:105640001e0090000000e800100798001e00900067
:10565000e30f5000f4ff34000000eb001007980047
:10566000050037001e0090005dfc07001e00900042
:105670000000e800100798001e009000e50f5000a1
:10568000f8ff3400010037000000000010438000e4
:105690000000e000fcff32006228ef001000200054
:1056a00062fc07007cfd0700028120000089be002b
:1056b000100020005dfc070077fd0700028120003c
:1056c00020019800310198006000200057fc07007d
:1056d000e3fd0700c0408800d14088000000eb00d7
:1056e00052fc0700bafd0700004088001140880006
:1056f000200020004dfc0700b5fd07002040880079
:1057000031408800d0cc2c00c109240040408800e2
:1057100051408800d0cc2c00c10924006040880092
:10572000714088002040800031408000020020004d
:1057300083112400e9ec070022852b006309240073
:10574000d0eb0700204088003140880024408000d2
