:020000040000fa
:080000000001040000000000f3
:020000040000fa
:04000800cc01000027
:020000040000fa
:04000c00cc01000023
:020000040000fa
:04001000cc0100001f
:020000040000fa
:04001400cc0100001b
:020000040000fa
:04001800cc01000017
:020000040000fa
:04001c00cc01000013
:020000040000fa
:04002000cc0100000f
:020000040000fa
:04002400cc0100000b
:020000040000fa
:04002800cc01000007
:020000040000fa
:04002c00cc01000003
:020000040000fa
:04003000cc010000ff
:020000040000fa
:040034000e100000aa
:020000040000fa
:04003800cc010000f7
:020000040000fa
:04003c00cc010000f3
:020000040000fa
:04004000cc010000ef
:020000040000fa
:04004400cc010000eb
:020000040000fa
:04004800cc010000e7
:020000040000fa
:04004c00b60e0000ec
:020000040000fa
:04005000cc010000df
:020000040000fa
:04005400cc010000db
:020000040000fa
:04005800cc010000d7
:020000040000fa
:04005c00cc010000d3
:020000040000fa
:04006000cc010000cf
:020000040000fa
:04006400cc010000cb
:020000040000fa
:04006800cc010000c7
:020000040000fa
:04006c00cc010000c3
:020000040000fa
:04007000cc010000bf
:020000040000fa
:04007400cc010000bb
:020000040000fa
:04007800cc010000b7
:020000040000fa
:04007c00cc010000b3
:020000040000fa
:04008000cc010000af
:020000040000fa
:04008400cc010000ab
:020000040000fa
:04008800cc010000a7
:020000040000fa
:04008c00cc010000a3
:020000040000fa
:04009000cc0100009f
:020000040000fa
:04009400cc0100009b
:020000040000fa
:04009800cc01000097
:020000040000fa
:04009c00cc01000093
:020000040000fa
:0400a000cc0100008f
:020000040000fa
:0400a400cc0100008b
:020000040000fa
:0400a800cc01000087
:020000040000fa
:0400ac00cc01000083
:020000040000fa
:0400b000cc0100007f
:020000040000fa
:0400b400cc0100007b
:020000040000fa
:0400b800cc01000077
:020000040000fa
:0400bc00cc01000073
:020000040000fa
:0400c000cc0100006f
:020000040000fa
:0400c400cc0100006b
:020000040000fa
:0400c800cc01000067
:020000040000fa
:0400cc00cc01000063
:020000040000fa
:0400d000cc0100005f
:020000040000fa
:0400d400cc0100005b
:020000040000fa
:0400d800cc01000057
:020000040000fa
:04010800cc01000026
:020000040000fa
:04010c00cc01000022
:020000040000fa
:04011000cc0100001e
:020000040000fa
:04011400cc0100001a
:020000040000fa
:04011800cc01000016
:020000040000fa
:04011c00cc01000012
:020000040000fa
:04012000cc0100000e
:020000040000fa
:04012400cc0100000a
:020000040000fa
:04012800cc01000006
:020000040000fa
:04012c00cc01000002
:020000040000fa
:04013000cc010000fe
:020000040000fa
:04013400cc010000fa
:020000040000fa
:04013800cc010000f6
:020000040000fa
:04013c00cc010000f2
:020000040000fa
:04014000cc010000ee
:020000040000fa
:04014400cc010000ea
:020000040000fa
:04014800cc010000e6
:020000040000fa
:04014c00cc010000e2
:020000040000fa
:04015000cc010000de
:020000040000fa
:04015400cc010000da
:020000040000fa
:04015800cc010000d6
:020000040000fa
:04015c00cc010000d2
:020000040000fa
:04016000cc010000ce
:020000040000fa
:04016400cc010000ca
:020000040000fa
:04016800cc010000c6
:020000040000fa
:04016c00cc010000c2
:020000040000fa
:04017000cc010000be
:020000040000fa
:04017400cc010000ba
:020000040000fa
:04017800cc010000b6
:020000040000fa
:04017c00cc010000b2
:020000040000fa
:04018000cc010000ae
:020000040000fa
:04018400cc010000aa
:020000040000fa
:04018800cc010000a6
:020000040000fa
:04018c00cc010000a2
:020000040000fa
:04019000cc0100009e
:020000040000fa
:04019400cc0100009a
:020000040000fa
:04019800cc01000096
:020000040000fa
:04019c00cc01000092
:020000040000fa
:0401a000cc0100008e
:020000040000fa
:0401a400cc0100008a
:020000040000fa
:0401a800cc01000086
:020000040000fa
:0401ac00cc01000082
:020000040000fa
:0401b000cc0100007e
:020000040000fa
:0401b400cc0100007a
:020000040000fa
:0401b800cc01000076
:020000040000fa
:0401bc00cc01000072
:020000040000fa
:0401c000cc0100006e
:020000040000fa
:0401c400cc0100006a
:020000040000fa
:0401c800cc01000066
:020000040000fa
:0401cc00cc01000062
:020000040000fa
:0401d000cc0100005e
:020000040000fa
:0401d400cc0100005a
:020000040000fa
:0401d800cc01000056
:020000040000fa
:100200000f9420000eff20000e0188000000000067
:10021000000020000000e000020032000001200089
:1002200020028800140007005d0007000000e000c5
:1002300003003a00400321000100200002003700c3
:100240000000200001002000810f7000010032003a
:1002500014000700000020000000e000020032004f
:100260000000020000000000480d02000000000035
:100270000040da000000fe004440a90040142000c5
:100280000000e0000300320000002000a001880010
:100290004440a800000006008a1f78008b1f7800e9
:1002a0000000060091018800800478000000eb0047
:1002b0001a003700e284440032a0b4009905ba0065
:1002c000e284440032a0b4009906ba00e2844400fb
:1002d00032a0b4000006eb00476fde00fd07b2005d
:1002e000636ce10003003a00ebff07000000eb0045
:1002f0000a003700606ce10004003a00005deb008a
:100300008b05e900fdff3e00040037006168e10055
:10031000010032000086eb000b00070019c7ba008d
:100320001905ba000e04e00003003a000a00e000dc
:10033000e0ff3a0000000600fe07b2009e018800c0
:100340008a047800f5ff3700395dba008b05e900b3
:100350000c003200295dba008b05e900080032006c
:100360000c00e00003003a00e284440032a0b40034
:10037000f5ff370019ddba008b05e900faff3a00f6
:100380008904e800e184440032a0b40000000600c3
:1003900000000000000000000040da000000fe0045
:1003a000000005008001780002003700b159780094
:1003b0000201e9000200e000fcff3a000000060034
:1003c00000017800820178003204e000fdff3a006d
:1003d00003017800b1417800035978000304e0007c
:1003e000fcff3a0000000600800078000101780060
:1003f0003104e000fdff3a0000005100000006005b
:10040000881f78000204780008017800e5ff0700e3
:10041000080040004f047800000006000000fa00c9
:10042000881f780000047800ea8157003fb99700e0
:100430008800780000202000070007000000e0008e
:10044000020035008040eb00017478004f04780012
:100450000080fa00000006006200fa00889fbe00db
:100460008a1f780000057800810478000204780073
:100470008300780080f92f000f004000a7030700d9
:100480009a979f00a9979f000000eb00b09f9f00e4
:100490001885fb008a04fb000a05ea004f55de00c0
:1004a00050022000808f54000d003200e10f5500f3
:1004b0000b003a000a017800880078002f9097001e
:1004c0009f91970003000100a0979f000000e000ab
:1004d0008e0032003f9897000000e800b09f9f0018
:1004e0000a04440050022000808f540004003200af
:1004f0000900e000e6ff3a003f98970084003700cb
:100500000000eb00909f9f00809f9f00f0979f004e
:10051000e0979f00d0979f00c0979f00070037008b
:10052000a19320000100500000004000e192200053
:1005300061007800df98970001007000d09f9f0055
:100540008804780009047800384578008a00fb00a8
:10055000a09320007a0107000000e000f0ff3a00bd
:10056000a1c2b300814f55000e003a00cf8897001a
:100570000180e900c08f9f0010007800c09f9f009d
:100580000000e00005003d000000ea00c09f9f0061
:100590005f9897000020a000d09f9f000904e8000a
:1005a0000f003700c09f9f000000eb0005003700e0
:1005b000f2ff2700820f5000020032006a01b900ea
:1005c000028040000904780088047800b900fb002c
:1005d0000103b100e98f5000f5ff3600c09f9f0076
:1005e000e0c2b300984f1000020032000080eb0020
:1005f00019003700a0c2b300d84f100007003a001e
:10060000cf8897000180e900c08f9f00100078001c
:10061000a09f9f000804e800100037000000eb00d6
:10062000a09f9f008800780005003700f3ff270097
:10063000830f5000020032006a02b900040041003a
:1006400001047800880078003101fb000203b1004a
:10065000e90f5100f5ff3600a09f9f0098447800f5
:100660008900fb0060922000350107000000e000d7
:10067000020032000804e800010037008044eb006b
:10068000c97f9f0080c6b30080cf540004003a00a9
:1006900098cf14000a003a00664050000600370068
:1006a000c0c6b30080cf540005003a0098cf1400b4
:1006b00003003a0065404000c07f9f000804e80046
:1006c0001801fb00e3fb2f008f81410081f92f000f
:1006d0008f804000a0f92f000f004000100007009d
:1006e0000000e00009003a00e1fb2f008f8040008d
:1006f000a0f92f000f0040004c0207000000e000ae
:10070000020035000804e80061ff37000080eb00bc
:100710004f0578004f04be000080fa00000006007c
:10072000881f7800e4c6b300844f5100b600320041
:1007300010003c006b425200844f51001800320000
:1007400005003c0054c2b300844f5100ee0032005b
:1007500084c5b3000f00370044c6b300844f510076
:100760001400320065424200844f5100e9003a0013
:100770001000370004c7b300844f5100d500320089
:100780005300350065424200844f51005000320052
:1007900063424200844f5100de003a004c003700b3
:1007a0001181e90082087800f00090001241780081
:1007b000d600370020629000c5c6b300854f5200b6
:1007c00007003a00910278006482520084087800a1
:1007d0001402be004fabde00860378001100370024
:1007e00015c7b300854f520003003200a5c6b30001
:1007f000854f520006003a0091027800688252004c
:10080000840878005403be004402be00050037008f
:100810001182e9008408780014027800cfa2de007b
:10082000612bb9000498be000690be00a060900045
:1008300088c6b30088cf50000d00320028c6b30030
:1008400088cf500004003a000402fb00cfa2de0073
:10085000612bb9000800370048c7b30088cf5000ab
:10086000030032006644440088cf500004003a0080
:10087000cfa2de00612bb9000498be000690be0036
:100880003002be002003be00f0009000e00f5200d6
:10089000e08f5a00e00f5b00e08f5b0002003d003c
:1008a000d4c2b30008003700001290000418a3005f
:1008b00002003200b4c2b300030037000408a300f2
:1008c0004c00320004c2b30084f1780047003700c6
:1008d00020629000c5c6b300854f520006003a0062
:1008e0009102780064825200840878001402be00ed
:1008f0006033b8001100370015c7b300854f5200b0
:1009000003003200a5c6b300854f520006003a002e
:100910009102780068825200840878005403be0077
:100920004402be00050037001182e9008408780007
:10093000140278008002eb006033b8000498be0017
:100940000690be00a060900088c6b30088cf50001b
:100950000d00320028c6b30088cf500004003a00d2
:100960000482fb008002eb006033b800080037000f
:1009700048c7b30088cf50000300320066444400eb
:1009800088cf500004003a008002eb006033b800ca
:100990000498be000690be00801090000138a300ad
:1009a000140032003002be002003be00e00f5200ef
:1009b000e08f5a00e00f5b00e08f5b000d0032001b
:1009c00081c7b300814f51000300320081c5b300dd
:1009d000814f510007003a00f000900004c3b300bb
:1009e00084f178008100e80082f178008100e8005d
:1009f00071009800f0009000818141006300980030
:100a0000824078003e003700a0619000c4c6b30069
:100a10001181e90084cf5100220032000a003c001d
:100a20006442520084cf51002500320004c2e80025
:100a300084cf5100130032006842520084cf51002d
:100a40001e003a000a00370044c7b30084cf5100ab
:100a50001b0032006642420084cf51001800320071
:100a60006942520084cf510014003a00050037005b
:100a70008208780092007800405890008048780002
:100a80002c0037008208780092007800600a9000fd
:100a9000cfa2de00612bb9008498be008690be0014
:100aa00024003700820878009200780060099000e6
:100ab000cf91de008288be001e0037001181e90060
:100ac0008208780092007800600890008008780022
:100ad000180037001181e9008208780012027800be
:100ae000cfa2de00612bb9000498be000690be00c4
:100af000f0009000818141006300980081c7b3003d
:100b00001b0007000b003700f000900082f1780016
:100b100006003700f0009000818141000204e000ef
:100b200001003a0052c2b300824978008100e80017
:100b3000710098000000eb004f04780000000600f0
:100b4000020037000304e0000600320000017800d4
:100b500002007800b041780081cf5100f9ff3a00df
:100b6000010037000001eb000200780000000600e1
:100b7000fc874700889fbe008a9fbe008c9fbe00f6
:100b80008e1f78000006780080c5b30080cf50002b
:100b90000a0032007740400080cf50000a00320047
:100ba0006940400080cf50000b003200509120007f
:100bb00080bf9f00ae0020000a0037004290200056
:100bc00082bf9f00060037005391200083bf9f0023
:100bd0008e002000030037005491200084bf9f0046
:100be0000e0120003c02be002c03be000605be0024
:100bf0000404be0040c6b30080cf500003003200a2
:100c00006540400080cf50000b003a00e00f5200da
:100c1000e08f5a00e00f5b00e08f5b0006003d00b4
:100c20006000b8006011b8000404500085845800ca
:100c30000605590087855900e80f57000400320067
:100c400040002000f00f570038003a000100370044
:100c500030002000e00f5400e08f5c00e00f5d00ea
:100c6000e08f5d0004003a00dc0890008d01200058
:100c70000100e000060032008e00e900888060007c
:100c80008fba9700e5c07800f1ef9f007d0120004a
:100c9000800078008100e900050033008b05d10059
:100ca0000a85d3008984d3000884d300f9ff370074
:100cb000089ebe000a96be00120037008d06e900ad
:100cc0008e00e900848060000fb99700e2c17800cf
:100cd00082fd2f000f01410003f17e0080007800ab
:100ce0008100e900050033008783d1000683d3002b
:100cf0008582d3000482d300f9ff3700049ebe0032
:100d00000696be003c02be002c03be00e00f52005f
:100d1000e08f5a00e00f5b00e08f5b008b00340037
:100d20000d00e000e5ff3c00880037002c609000db
:100d300081c6b300814f50000b00320006003c001a
:100d40000004e00008003200e6c05000814f50006f
:100d50004e003a0004003700c1c6b300814f500076
:100d60004a003a00210037000800e00004003a0081
:100d70005c0890008d0120000000e00006003200b9
:100d8000110009000e84d8000fb99700e2c0780066
:100d9000f1ef9f007d012000110009000e84d800b2
:100da0000a003700110009000e04d8008d06e90082
:100db0000e81b900020454008fb8970061417c0095
:100dc00081fd2f008f80400082f07e0000047800bb
:100dd0000800e000020032000d00e000f1ff3c00de
:100de000cfc4de00614db90025003700e00f54008c
:100df000e08f5c0004003a005c0890008d01200048
:100e00000000e000070032006171b9000800be0078
:100e1000630107008fb99700e3417800f3ef9f006b
:100e20007d0120006171b9000800be004c0107007f
:100e30000b0037006171b9000800be0039010700de
:100e40008d06e90000f1b900020454000fba9700c2
:100e5000e4427c0084fd2f000f02420005f27e0078
:100e60000004be00e00f5000e08f58000200320086
:100e70000d00e000efff3c004fcdde008a0578005a
:100e8000089ebe000a96be0030003700e00f5400f6
:100e9000e08f5c00e00f5d00e08f5d0004003a0031
:100ea0005c0890008d0120000000e0000900320085
:100eb0006172b900612bb9000800be000a01be00d2
:100ec000da0107000fba970064427800f4ef9f0040
:100ed0007d0120006172b900612bb9000800be00dd
:100ee0000a01be00ca0107000d0037006172b90097
:100ef000612bb9000800be000a01be00cf01070047
:100f00008d06e90000f2b900040454008fba97007e
:100f100065427c0085fd2f008f82420084f27e00b6
:100f2000009ebe000296be003c04be002c05be0022
:100f3000e00f5400e08f5c00e00f5d00e08f5d008b
:100f4000020034000d00e000e8ff3c00e80f57000d
:100f500010003a000c1090000038a3000d00320081
:100f6000f78f560006003e0085fd2f008f8242005d
:100f7000e5c07e0000c3b30080cf50000500320002
:100f80008d06e90002c3b30081fd2f008f80400071
:100f900082f07e0078811600120e98006c0090009e
:100fa00083fd2f008f8141008d804100fdfc0700f3
:100fb0001c089000dc089000810f500006003d00e6
:100fc00000805000000e98000c1090000040a1001e
:100fd000001698000f0037000100e0000d003d00f2
:100fe0008c109000f4806000f08f500009003a00ef
:100ff0007c099000fc009000810051000c099000d9
:1010000082805000008050004240a900010034005e
:10101000000e98004f0778004f06be004f05be0037
:101020004f04be00cf01b100000006000400fa002a
:10103000889fbe008a9fbe008c1f78000004780045
:1010400001067800f80d900078009000808555002a
:10105000080890008085550018089000808555008c
:10106000280890008085550038089000808555003c
:1010700048089000808555000002220090bf9f0024
:1010800000032300a0bf9f00081090000028a300c9
:1010900015003a000b00e000130034000b05780047
:1010a0008a047800e20f5500010036002900200074
:1010b000c801900009017800ee80570058009000a8
:1010c00003000100500498000000e0008c00320092
:1010d0006808900009004000600c98000905550060
:1010e0004240a900eeff3c00780190000200e000c1
:1010f0000c003400c80190008c007800580090006b
:1011000003000100500498008080eb000000e00024
:101110007c003200e80890007800900000804000d9
:10112000600c9800880c90000900e0001100340069
:1011300009057800e28f5400010036002a002000e3
:10114000c80190000a017800ec8057005800900018
:1011500003000100500498000000e0006800320025
:10116000680890000a004000600c98008a845400cf
:10117000edff3700180990000200e0000c00340079
:10118000c8019000e80090005800900003000100a2
:10119000500498008080eb000000e000590032000d
:1011a000e80890001808900000804000600c98004b
:1011b000a80c90000900e000110034000905780037
:1011c000e28f5400010036002a002000c801900080
:1011d0000a017800ec8057005800900003000100dd
:1011e000500498000000e0004500320068089000bc
:1011f0000a004000600c98008a845400edff37001c
:10120000380990000200e0000e003400e800900071
:101210001808900080804000c8019000580090009d
:1012200003000100500498008080eb000000e00003
:1012300034003200e8089000380890000080400038
:10124000600c9800c80c90000900e0001100340008
:1012500009057800e28f5400010036002a002000c2
:10126000c80190000a017800ec80570058009000f7
:1012700003000100500498000000e000200032004c
:10128000680890000a004000600c98008a845400ae
:10129000edff3700081090008000eb000028a3004d
:1012a000180032000b00e000160034008b047800b8
:1012b00009057800e28f5400010036002a00200062
:1012c000c80190000a017800ee8057005800900095
:1012d00003000100500498000000e0000800320004
:1012e000680890000a004000600c98008a8454004e
:1012f0004240a900eeff3c008000eb0001003700f7
:101300008080eb00010078004f0678004f05be009a
:101310004f04be000080fa000000060001087800bb
:1013200000000600839f68000100e00002003d000d
:1013300060001000e08018000300e00002003d00a3
:1013400060011100e0811900050007004f00e00076
:1013500002003b0060001000e08018000000060062
:101360006022b800060220000000d0008180d20078
:101370000482d2008582d2000000a0000202520046
:1013800083825a00030031000202420083824a0035
:101390000000a1000603e900f3ff3a000000060088
:1013a000efff07000400be0000000600889fbe009b
:1013b0008a9fbe0030044200b0844a0030054b00d2
:1013c00090854b006000b1000898be000a90be00f6
:1013d0000440e10005c8e10006d0e10007d8e100c3
:1013e00002003100680040001008e8004f05be0010
:1013f0004f04be0000000600889fbe008a9fbe000a
:101400003004be002005be000418540005985c009e
:1014100006185d0007985d00110020000440e100ff
:1014200005c8e10006d0e10007d8e100010039005d
:101430008000eb00108810004f05be004f04be0076
:10144000000006001200fa00889fbe008a9fbe00be
:101450008c9fbe00e0b79f00f1b79f0082bf9f0046
:1014600093bf9f000605be000404be000000eb0011
:10147000d0b79f00c0b79f00b0b79f00a0b79f0034
:1014800090b79f000006eb005fb19700cfb09700c8
:10149000820141003fb097000200e00004003d00df
:1014a000370007007e805700c0ff070003003700a9
:1014b000330007007e805700cfff0700dfb697009c
:1014c0000d00e0000c0035006fb29700ffb29700ee
:1014d0000fbb97009fbb9700100020000100200069
:1014e0006011b80000027200818272000203730072
:1014f000838373001b0007000c06e8000104200032
:10150000810f5600e0ff3a000d00e00004003d00ae
:101510000802be000a03be007e805700a3ff07003a
:101520005fa897000000e00005003a001fb2970096
:10153000afb297003fb39700cfb397000900070001
:101540006fb09700ffb097000fb997009fb9970051
:101550004f06be004f05be004f04be000080fa00db
:10156000000006000100070000000600a4b79f006d
:10157000b5b79f00c6b79f00d7b79f000000060011
:101580004f09de0082817100b3b79f004f01de007a
:101590008180400082807000a1b79f008fb09700cb
:1015a0004f09de00000040000200700090b79f006d
:1015b0007fa897004f01de0081804000828070008c
:1015c00081b79f000d0007004f3ade000000400089
:1015d00004007000f0af9f00080007000402420002
:1015e00085824a0006034b0087834b00dfff07001c
:1015f0000802be000a03be00000006002fb29700da
:10160000bfb297004fb39700dfb39700000006000a
:10161000881f780018002000881f780089ff0700c5
:101620008f87e9004f04780000000600801feb0060
:1016300084ff07008f87e90000000600889fbe0036
:101640008a9fbe00e00f5000e08f5800e00f590065
:10165000e08f59000c003d006044b8006055b800b0
:101660000000540081805c0002015d0083815d0008
:10167000180020001500070008003d0018000700b2
:101680000004eb00050037000004eb000f0007002a
:1016900002003d001200070018002000dcff0700d8
:1016a0000800e000060032006022b8006033b80095
:1016b0000000520081805a0002015b0083815b00c0
:1016c0004f05be004f04be0000000600e00f5200b0
:1016d000e08f5a00e00f5b00e08f5b000000060027
:1016e0006044b8006055b8000402540085825c0074
:1016f00006035d0087835d0000000600889fbe0032
:101700008a9fbe008c1f7800e00f5000e08f5800c9
:10171000e00f5900e08f59000d003d006044b80013
:101720006055b8000000540081805c0002015d003b
:1017300083815d001c0020000820e10009a8e10071
:101740000ab0e1000bb8e1000d003d0008003700d1
:101750000006eb00e00f5200e08f5a00e00f5b0044
:10176000e08f5b0006003d006044b8006055b800a3
:101770000402540085825c0006035d0087835d00df
:10178000aaff07000c00e000060032006022b8004b
:101790006033b8000000520081805a0002015b00f3
:1017a00083815b004f0678004f05be004f04be00ea
:0417b000000006002f
:020000040000fa
:1017b4007400000074250000643b000076250000de
:1017c400643b000069250000640a0000002b00004f
:1017d4000d0a0000005300002d2c0000424d0000b3
:1017e400530d00000a000000534200002c34000096
:1017f4000d0a000000530000462c0000310d0000cb
:101804000a000000535300002c4300003030000055
:101814003030000030300000310d00000a000000bc
:10182400505a00000d0a000000500000532c000024
:101834003131000032320000333300003434000010
:1018440035350000363600003737000038380000e0
:1018540039390000303000004141000042420000ac
:101864004343000044440000454500004646000050
:101874000d0a000000500000432c0000303100002d
:1018840030320000303300003034000030350000c6
:1018940030360000303700003038000030390000a6
:1018a400303000003041000030420000304300007e
:1018b4003044000030450000304600002c30000069
:1018c400322c0000303500000d0a000000500000ea
:1018d400432c00003131000031320000313300006c
:1018e400313400003135000031360000313700005a
:1018f400313800003139000031300000314100003e
:101904003142000031430000314400003145000001
:10191400314600002c310000382c00003032000029
:101924000d0a000000530000522c0000303000006b
:101934003030000030300000303000000d0a00006c
:10194400005200002c3100000d0a0000004c000081
:10195400530d00000a000000410d00000a000000c1
:1019640053550000572c0000303100003032000085
:1019740030330000303400003035000030360000d1
:1019840030370000303800003039000030300000bb
:101994003041000030420000304300003044000079
:1019a40030450000304600002c3100003233000086
:1019b400340d00000a00000053480000572c0000ba
:1019c40030300000314300002c3500003637000071
:1019d400380d00000a000000447200007567000022
:1019e400730d00000a000000535200002c33000065
:1019f400323000003030000030300000300d000084
:101a04000a000000000000000000000000000000c8
:101a1400535300002c4300003030000030300000ed
:101a240030300000300a00000d000000000000000b
:081a34000000000000000000aa
:020000040000fa
:101a3c000000fa000421a90004c1a90021088000bb
:101a4c00f0fc2f00008060002008880005a1a90090
:101a5c000021ef000080eb0010088800a10480003a
:101a6c00f0ff28000080600000d0a000a0048800d7
:101a7c008460a9008c60a80005e1a8000080fa0031
:101a8c00000006002200fa0040a7a8004001200038
:101a9c00000f78005000200010079800a0002000d4
:101aac0020079800d262a900d222a900d662a80011
:101abc00d622a90072000700660047002200200011
:101acc00a1bd280034fa070074004700ae00900056
:101adc00811f78009e009000811f78009e1f780067
:101aec00c1bd2800811f780049fa0700e88757001c
:101afc00f4004700660047002efa07003100200072
:101b0c0090be28007d000700c0d429006101200090
:101b1c007101070081002000d0be2800770007006b
:101b2c00c0d42900610120006b0107006100200076
:101b3c0060bf280071000700c0d42900610120009b
:101b4c006501070061002000d0bf28006b00070072
:101b5c00c0d42900610120005f010700d1002000e2
:101b6c0040c0280065000700c05d2800410020002f
:101b7c00590107004100200020c128005f00070028
:101b8c00c05d2800410020005301070051022000d5
:101b9c0070c1280059000700c05d280041002000da
:101bac004d010700b1022000d0c3280053000700ec
:101bbc00c05d28004100200047010700b102200051
:101bcc0090c628004d000700c05d28004100200091
:101bdc0041010700d100200050c928004700070030
:101bec00c0d42900610120003b01070051002000f6
:101bfc0030ca28004100070080a92300d102200030
:101c0c003501070000ba2b0091a920003201070012
:101c1c004100200090ca28003800070000dd2d008c
:101c2c00c15420002c01070031002000e0ca28001c
:101c3c0032000700009f2400411c200026010700f1
:101c4c00b102200020cb28002c000700009f2400ac
:101c5c00411c200020010700f1002000e0cd2800ed
:101c6c0026000700009f2400411c20001a010700d9
:101c7c0031002000e0ce280020000700f9ff3700db
:101c8c000000fa00de42a800de62a900e242a900d0
:101c9c00f0002000a01088006110800090ff2f0041
:101cac0000806000601088000c02a9000da2a90041
:101cbc000d42a9008d40a9000fe2a9008d20a800bb
:101ccc00c1048000f0f82f00808060000005200027
:101cdc0001007000c004880071108000f0f32f0028
:101cec0000806000701088008520a9000de2a8001b
:101cfc000f42a8000080fa00000006000600fa005f
:101d0c0010079800210798000000eb00000f7800e6
:101d1c000d00370000000000711080000020200032
:101d2c00008060000000e000fbff3a001e0078001d
:101d3c009e00900000804000104078000000fb00e6
:101d4c00801088001e0fe8002e0090009e00780086
:101d5c00808f5000efff35000080fa000000060075
:101d6c00809fbe00821f78003400f8000000200025
:101d7c00a00188000000fa00024080009010800052
:101d8c00804078004080200000004100014878002d
:101d9c00004080008000e800f00f20000080600010
:101dac00004088008520a9000080fa003400f9006a
:101dbc004f0178004f00be0000400600a000fa0062
:101dcc000e00780032d52200c32224000288be0007
:101ddc0064004000d2342500d3a020000288be004d
:101dec00640040006011b8000288be00640040002e
:101dfc00030009000018eb008000b100302524001e
:101e0c00c1322300200f9800310f9800d0a0200081
:101e1c0001002000400f9800510f9800fc00470073
:101e2c00050009008018eb00b0d22000a1002000b2
:101e3c0040179800511798008e007800c102b0002e
:101e4c00070009008018eb0060cf2800c1032000b8
:101e5c00810047000d000900b0587800e000b10087
:101e6c008e007800a104b000020009008018eb007d
:101e7c0030652400c1122300002f9800112f980008
:101e8c00d000200001002000202f9800312f980056
:101e9c008e0078008105b000050009008018eb0069
:101eac00400620000e00400032e52400c32224002e
:101ebc000288be0064004000d2342500d3a020006c
:101ecc000288be00640040006011b8000288be00a9
:101edc0064004000030009000018eb008000b10012
:101eec00a0d0280081072000810047000d000900c8
:101efc00b0587800e000b1008e0078006108b000a6
:101f0c00020009008018eb0020c5220011d320002c
:101f1c006087980071879800a000200001002000c5
:101f2c00008f9800118f98008e0078004109b00046
:101f3c00050009008018eb00c00820000e004000ce
:101f4c0026f9070080007800c00820000e00400031
:101f5c006aff0700800220000e0040001ff90700f6
:101f6c0080007800800220000e00400063ff070014
:101f7c00000520000e00400018f9070080007800d2
:101f8c00000520000e0040005cff07000e007800ea
:101f9c0012f90700800078000e00780057ff070048
:101fac00740047000df907008000780074004700aa
:101fbc0052ff0700c00320000e00400007f9070085
:101fcc0080007800c00320000e0040004bff07008b
:101fdc00400620000e00400000f907008000780049
:101fec00400620000e00400044ff0700c0082000ff
:101ffc000e004000f9f8070080007800c0082000af
:10200c000e0040003dff07000080fa0000000600b3
:10201c0000a0fe003600f800849fbe00869fbe0024
:10202c003400f80004002000a40188000000fa002d
:10203c008460a9003100200090be28002fff07000b
:10204c000080fa003400f9004f03be004f02be00be
:0c205c003600f9000080fe000040060085
:020000040000fa
:10206800000800000401000000000000260900002c
:102078001a00000002000000686a6c00747a4c00c4
:102088000000010000020000040008000010000029
:10209800000020002b2d2300300000000409000060
:1020a80022000000020000003031320033343500d5
:1020b8003637380039414200434445004600300075
:1020c8003132330034353600373839006162630005
:0c20d800646566000000000000000000cd
:020000040000fa
:1020e400f03fb1000180b10006003500ee030900a5
:1020f40000000000403fb1000180b100fbff3d0043
:102104001000b000203fb00002003500008009003c
:082114000000000000000600bd
:020000040000fa
:0200000401f009
:04000000f7bf000046
:020000040000fa
:0200000401f009
:04000400ff7f00007a
:020000040000fa
:0200000401f009
:04000800fcff0000f9
:00000001FF
